{
  "contracts/Shadow.sol": {
    "Shadow": {
      "abi": [
        {
          "inputs": [
            {
              "internalType": "address",
              "name": "_hasher",
              "type": "address"
            },
            {
              "internalType": "address",
              "name": "_verifier",
              "type": "address"
            }
          ],
          "stateMutability": "nonpayable",
          "type": "constructor"
        },
        {
          "anonymous": false,
          "inputs": [
            {
              "indexed": false,
              "internalType": "uint256",
              "name": "root",
              "type": "uint256"
            },
            {
              "indexed": false,
              "internalType": "uint256[10]",
              "name": "hashPairings",
              "type": "uint256[10]"
            },
            {
              "indexed": false,
              "internalType": "uint8[10]",
              "name": "pairDirection",
              "type": "uint8[10]"
            }
          ],
          "name": "Deposit",
          "type": "event"
        },
        {
          "anonymous": false,
          "inputs": [
            {
              "indexed": false,
              "internalType": "address",
              "name": "to",
              "type": "address"
            },
            {
              "indexed": false,
              "internalType": "uint256",
              "name": "nullifierHash",
              "type": "uint256"
            }
          ],
          "name": "Withdrawal",
          "type": "event"
        },
        {
          "inputs": [
            {
              "internalType": "uint256",
              "name": "",
              "type": "uint256"
            }
          ],
          "name": "commitments",
          "outputs": [
            {
              "internalType": "bool",
              "name": "",
              "type": "bool"
            }
          ],
          "stateMutability": "view",
          "type": "function"
        },
        {
          "inputs": [],
          "name": "denomination",
          "outputs": [
            {
              "internalType": "uint256",
              "name": "",
              "type": "uint256"
            }
          ],
          "stateMutability": "view",
          "type": "function"
        },
        {
          "inputs": [
            {
              "internalType": "uint256",
              "name": "_commitment",
              "type": "uint256"
            }
          ],
          "name": "deposit",
          "outputs": [],
          "stateMutability": "payable",
          "type": "function"
        },
        {
          "inputs": [
            {
              "internalType": "uint256",
              "name": "",
              "type": "uint256"
            }
          ],
          "name": "nullifierHashes",
          "outputs": [
            {
              "internalType": "bool",
              "name": "",
              "type": "bool"
            }
          ],
          "stateMutability": "view",
          "type": "function"
        },
        {
          "inputs": [
            {
              "internalType": "uint256",
              "name": "",
              "type": "uint256"
            }
          ],
          "name": "roots",
          "outputs": [
            {
              "internalType": "bool",
              "name": "",
              "type": "bool"
            }
          ],
          "stateMutability": "view",
          "type": "function"
        },
        {
          "inputs": [],
          "name": "treeLevel",
          "outputs": [
            {
              "internalType": "uint8",
              "name": "",
              "type": "uint8"
            }
          ],
          "stateMutability": "view",
          "type": "function"
        }
      ],
      "evm": {
        "bytecode": {
          "linkReferences": {},
          "object": "6080604052600a600160146101000a81548160ff021916908360ff16021790555066038d7ea4c6800060025560006003556040518061014001604052807f33418cd1669b4e7f4bf473ec2db9a489b3d6f9f11b91d0b3b6004432ab53d60b81526020017f350ffb7c45ccf8940c163b192252495b614def57272b6f8d9a53a5b3e44ef8bd81526020017fc8acb7af851baf91a82b1ad46b01ac506ce80387170890dea377d21e8520258481526020017f5171d273154b2764aa5903210e16bd1899b18648d1358d41887a113227e9acc581526020017f986c06cb04d613f57cf7a1da410e0f22c794e1ec1ae125898cfc9662a5e5be5981526020017f6eb9a05106eff3031621027680204b2e9326b0e5191bd62f3cd7bf7f6d94d02781526020017fa1cbc8691493398c061f547b4882edbb6a38ce1730c8a2605e9d8138d4ad122681526020017f850aa72f3d8bc65181e9c29d76f7614e2f939ade9442abac29fc8a0329deeffd81526020017fe9c6f678752dbfc89028bf8b9b1cce608b34b742b75fbae878ec2c6ae803dc1e81526020017fa9e22c2e1f4531bc4389032bb472b97c25a7298d27ba4fefd75439a1be46f77f815250600890600a620001c89291906200024d565b50348015620001d657600080fd5b5060405162001322380380620013228339818101604052810190620001fc91906200031b565b600160008190555081600160006101000a81548173ffffffffffffffffffffffffffffffffffffffff021916908373ffffffffffffffffffffffffffffffffffffffff160217905550505062000362565b82600a81019282156200027f579160200282015b828111156200027e57825182559160200191906001019062000261565b5b5090506200028e919062000292565b5090565b5b80821115620002ad57600081600090555060010162000293565b5090565b600080fd5b600073ffffffffffffffffffffffffffffffffffffffff82169050919050565b6000620002e382620002b6565b9050919050565b620002f581620002d6565b81146200030157600080fd5b50565b6000815190506200031581620002ea565b92915050565b60008060408385031215620003355762000334620002b1565b5b6000620003458582860162000304565b9250506020620003588582860162000304565b9150509250929050565b610fb080620003726000396000f3fe6080604052600436106100555760003560e01c80631f79a1e91461005a57806349ce8997146100975780638bca6d16146100d4578063b6b55f25146100ff578063b8e795641461011b578063c2b40ae414610146575b600080fd5b34801561006657600080fd5b50610081600480360381019061007c9190610761565b610183565b60405161008e91906107a9565b60405180910390f35b3480156100a357600080fd5b506100be60048036038101906100b99190610761565b6101a3565b6040516100cb91906107a9565b60405180910390f35b3480156100e057600080fd5b506100e96101c3565b6040516100f691906107d3565b60405180910390f35b61011960048036038101906101149190610761565b6101c9565b005b34801561012757600080fd5b50610130610632565b60405161013d919061080a565b60405180910390f35b34801561015257600080fd5b5061016d60048036038101906101689190610761565b610645565b60405161017a91906107a9565b60405180910390f35b60066020528060005260406000206000915054906101000a900460ff1681565b60076020528060005260406000206000915054906101000a900460ff1681565b60025481565b6101d1610665565b6002543414610215576040517f08c379a000000000000000000000000000000000000000000000000000000000815260040161020c906108a8565b60405180910390fd5b6007600082815260200190815260200160002060009054906101000a900460ff1615610276576040517f08c379a000000000000000000000000000000000000000000000000000000000815260040161026d90610914565b60405180910390fd5b600160149054906101000a900460ff1660026102929190610a96565b600354106102d5576040517f08c379a00000000000000000000000000000000000000000000000000000000081526004016102cc90610b53565b60405180910390fd5b60006102df6106be565b6102e76106e1565b6000600354905060008590506000806102fe610704565b60005b600160149054906101000a900460ff1660ff168160ff16101561056e578460056000600160149054906101000a900460ff1660ff1660ff16815260200190815260200160002081905550600060028761035a9190610ba2565b036103e35785935060088160ff16600a811061037957610378610bd3565b5b0154925060088160ff16600a811061039457610393610bd3565b5b0154888260ff16600a81106103ac576103ab610bd3565b5b6020020181815250506000878260ff16600a81106103cd576103cc610bd3565b5b602002019060ff16908160ff168152505061055b565b600560008260ff1660ff168152602001908152602001600020549350849250600560008260ff1660ff16815260200190815260200160002054888260ff16600a811061043257610431610bd3565b5b6020020181815250506001878260ff16600a811061045357610452610bd3565b5b602002019060ff16908160ff1681525050838260006002811061047957610478610bd3565b5b602002018181525050828260016002811061049757610496610bd3565b5b6020020181815250506000600160009054906101000a900473ffffffffffffffffffffffffffffffffffffffff1673ffffffffffffffffffffffffffffffffffffffff1663d622e5a4620249f0858e6040518463ffffffff1660e01b8152600401610503929190610cad565b6020604051808303818786fa158015610520573d6000803e3d6000fd5b50505050506040513d601f19601f820116820180604052508101906105459190610ceb565b90508095506002876105579190610d18565b9650505b808061056690610d49565b915050610301565b508397506001600460008a815260200190815260200160002060006101000a81548160ff0219169083151502179055506001600360008282546105b19190610d72565b925050819055506001600760008b815260200190815260200160002060006101000a81548160ff0219169083151502179055507fe6ab8667cb740d6c65a4ad321c031eb42f6c5085d5753238d1b2e1e370c1348388888860405161061793929190610ed5565b60405180910390a1505050505050505061062f6106b4565b50565b600160149054906101000a900460ff1681565b60046020528060005260406000206000915054906101000a900460ff1681565b6002600054036106aa576040517f08c379a00000000000000000000000000000000000000000000000000000000081526004016106a190610f5a565b60405180910390fd5b6002600081905550565b6001600081905550565b604051806101400160405280600a90602082028036833780820191505090505090565b604051806101400160405280600a90602082028036833780820191505090505090565b6040518060400160405280600290602082028036833780820191505090505090565b600080fd5b6000819050919050565b61073e8161072b565b811461074957600080fd5b50565b60008135905061075b81610735565b92915050565b60006020828403121561077757610776610726565b5b60006107858482850161074c565b91505092915050565b60008115159050919050565b6107a38161078e565b82525050565b60006020820190506107be600083018461079a565b92915050565b6107cd8161072b565b82525050565b60006020820190506107e860008301846107c4565b92915050565b600060ff82169050919050565b610804816107ee565b82525050565b600060208201905061081f60008301846107fb565b92915050565b600082825260208201905092915050565b7f4f6e6c79206465706f736974206f6620302e3030312045544820697320616c6c60008201527f6f77656400000000000000000000000000000000000000000000000000000000602082015250565b6000610892602483610825565b915061089d82610836565b604082019050919050565b600060208201905081810360008301526108c181610885565b9050919050565b7f4475706c696361746520636f6d6d69746d656e74000000000000000000000000600082015250565b60006108fe601483610825565b9150610909826108c8565b602082019050919050565b6000602082019050818103600083015261092d816108f1565b9050919050565b7f4e487b7100000000000000000000000000000000000000000000000000000000600052601160045260246000fd5b60008160011c9050919050565b6000808291508390505b60018511156109ba5780860481111561099657610995610934565b5b60018516156109a55780820291505b80810290506109b385610963565b945061097a565b94509492505050565b6000826109d35760019050610a8f565b816109e15760009050610a8f565b81600181146109f75760028114610a0157610a30565b6001915050610a8f565b60ff841115610a1357610a12610934565b5b8360020a915084821115610a2a57610a29610934565b5b50610a8f565b5060208310610133831016604e8410600b8410161715610a655782820a905083811115610a6057610a5f610934565b5b610a8f565b610a728484846001610970565b92509050818404811115610a8957610a88610934565b5b81810290505b9392505050565b6000610aa18261072b565b9150610aac836107ee565b9250610ad97fffffffffffffffffffffffffffffffffffffffffffffffffffffffffffffffff84846109c3565b905092915050565b7f4d65726b6c65207472656520686173206265656e2066696c6c65642e204e6f2060008201527f6d6f7265206465706f7369742063616e206265206d6164650000000000000000602082015250565b6000610b3d603883610825565b9150610b4882610ae1565b604082019050919050565b60006020820190508181036000830152610b6c81610b30565b9050919050565b7f4e487b7100000000000000000000000000000000000000000000000000000000600052601260045260246000fd5b6000610bad8261072b565b9150610bb88361072b565b925082610bc857610bc7610b73565b5b828206905092915050565b7f4e487b7100000000000000000000000000000000000000000000000000000000600052603260045260246000fd5b600060029050919050565b600081905092915050565b6000819050919050565b610c2b8161072b565b82525050565b6000610c3d8383610c22565b60208301905092915050565b6000602082019050919050565b610c5f81610c02565b610c698184610c0d565b9250610c7482610c18565b8060005b83811015610ca5578151610c8c8782610c31565b9650610c9783610c49565b925050600181019050610c78565b505050505050565b6000606082019050610cc26000830185610c56565b610ccf60408301846107c4565b9392505050565b600081519050610ce581610735565b92915050565b600060208284031215610d0157610d00610726565b5b6000610d0f84828501610cd6565b91505092915050565b6000610d238261072b565b9150610d2e8361072b565b925082610d3e57610d3d610b73565b5b828204905092915050565b6000610d54826107ee565b915060ff8203610d6757610d66610934565b5b600182019050919050565b6000610d7d8261072b565b9150610d888361072b565b9250828201905080821115610da057610d9f610934565b5b92915050565b6000600a9050919050565b600081905092915050565b6000819050919050565b6000602082019050919050565b610ddc81610da6565b610de68184610db1565b9250610df182610dbc565b8060005b83811015610e22578151610e098782610c31565b9650610e1483610dc6565b925050600181019050610df5565b505050505050565b6000600a9050919050565b600081905092915050565b6000819050919050565b610e53816107ee565b82525050565b6000610e658383610e4a565b60208301905092915050565b6000602082019050919050565b610e8781610e2a565b610e918184610e35565b9250610e9c82610e40565b8060005b83811015610ecd578151610eb48782610e59565b9650610ebf83610e71565b925050600181019050610ea0565b505050505050565b60006102a082019050610eeb60008301866107c4565b610ef86020830185610dd3565b610f06610160830184610e7e565b949350505050565b7f5265656e7472616e637947756172643a207265656e7472616e742063616c6c00600082015250565b6000610f44601f83610825565b9150610f4f82610f0e565b602082019050919050565b60006020820190508181036000830152610f7381610f37565b905091905056fea264697066735822122015df41cb7f6450eccafbb61250bf70b92d156117daac752693e99ea82f806e3164736f6c63430008110033",
          "opcodes": "PUSH1 0x80 PUSH1 0x40 MSTORE PUSH1 0xA PUSH1 0x1 PUSH1 0x14 PUSH2 0x100 EXP DUP2 SLOAD DUP2 PUSH1 0xFF MUL NOT AND SWAP1 DUP4 PUSH1 0xFF AND MUL OR SWAP1 SSTORE POP PUSH7 0x38D7EA4C68000 PUSH1 0x2 SSTORE PUSH1 0x0 PUSH1 0x3 SSTORE PUSH1 0x40 MLOAD DUP1 PUSH2 0x140 ADD PUSH1 0x40 MSTORE DUP1 PUSH32 0x33418CD1669B4E7F4BF473EC2DB9A489B3D6F9F11B91D0B3B6004432AB53D60B DUP2 MSTORE PUSH1 0x20 ADD PUSH32 0x350FFB7C45CCF8940C163B192252495B614DEF57272B6F8D9A53A5B3E44EF8BD DUP2 MSTORE PUSH1 0x20 ADD PUSH32 0xC8ACB7AF851BAF91A82B1AD46B01AC506CE80387170890DEA377D21E85202584 DUP2 MSTORE PUSH1 0x20 ADD PUSH32 0x5171D273154B2764AA5903210E16BD1899B18648D1358D41887A113227E9ACC5 DUP2 MSTORE PUSH1 0x20 ADD PUSH32 0x986C06CB04D613F57CF7A1DA410E0F22C794E1EC1AE125898CFC9662A5E5BE59 DUP2 MSTORE PUSH1 0x20 ADD PUSH32 0x6EB9A05106EFF3031621027680204B2E9326B0E5191BD62F3CD7BF7F6D94D027 DUP2 MSTORE PUSH1 0x20 ADD PUSH32 0xA1CBC8691493398C061F547B4882EDBB6A38CE1730C8A2605E9D8138D4AD1226 DUP2 MSTORE PUSH1 0x20 ADD PUSH32 0x850AA72F3D8BC65181E9C29D76F7614E2F939ADE9442ABAC29FC8A0329DEEFFD DUP2 MSTORE PUSH1 0x20 ADD PUSH32 0xE9C6F678752DBFC89028BF8B9B1CCE608B34B742B75FBAE878EC2C6AE803DC1E DUP2 MSTORE PUSH1 0x20 ADD PUSH32 0xA9E22C2E1F4531BC4389032BB472B97C25A7298D27BA4FEFD75439A1BE46F77F DUP2 MSTORE POP PUSH1 0x8 SWAP1 PUSH1 0xA PUSH3 0x1C8 SWAP3 SWAP2 SWAP1 PUSH3 0x24D JUMP JUMPDEST POP CALLVALUE DUP1 ISZERO PUSH3 0x1D6 JUMPI PUSH1 0x0 DUP1 REVERT JUMPDEST POP PUSH1 0x40 MLOAD PUSH3 0x1322 CODESIZE SUB DUP1 PUSH3 0x1322 DUP4 CODECOPY DUP2 DUP2 ADD PUSH1 0x40 MSTORE DUP2 ADD SWAP1 PUSH3 0x1FC SWAP2 SWAP1 PUSH3 0x31B JUMP JUMPDEST PUSH1 0x1 PUSH1 0x0 DUP2 SWAP1 SSTORE POP DUP2 PUSH1 0x1 PUSH1 0x0 PUSH2 0x100 EXP DUP2 SLOAD DUP2 PUSH20 0xFFFFFFFFFFFFFFFFFFFFFFFFFFFFFFFFFFFFFFFF MUL NOT AND SWAP1 DUP4 PUSH20 0xFFFFFFFFFFFFFFFFFFFFFFFFFFFFFFFFFFFFFFFF AND MUL OR SWAP1 SSTORE POP POP POP PUSH3 0x362 JUMP JUMPDEST DUP3 PUSH1 0xA DUP2 ADD SWAP3 DUP3 ISZERO PUSH3 0x27F JUMPI SWAP2 PUSH1 0x20 MUL DUP3 ADD JUMPDEST DUP3 DUP2 GT ISZERO PUSH3 0x27E JUMPI DUP3 MLOAD DUP3 SSTORE SWAP2 PUSH1 0x20 ADD SWAP2 SWAP1 PUSH1 0x1 ADD SWAP1 PUSH3 0x261 JUMP JUMPDEST JUMPDEST POP SWAP1 POP PUSH3 0x28E SWAP2 SWAP1 PUSH3 0x292 JUMP JUMPDEST POP SWAP1 JUMP JUMPDEST JUMPDEST DUP1 DUP3 GT ISZERO PUSH3 0x2AD JUMPI PUSH1 0x0 DUP2 PUSH1 0x0 SWAP1 SSTORE POP PUSH1 0x1 ADD PUSH3 0x293 JUMP JUMPDEST POP SWAP1 JUMP JUMPDEST PUSH1 0x0 DUP1 REVERT JUMPDEST PUSH1 0x0 PUSH20 0xFFFFFFFFFFFFFFFFFFFFFFFFFFFFFFFFFFFFFFFF DUP3 AND SWAP1 POP SWAP2 SWAP1 POP JUMP JUMPDEST PUSH1 0x0 PUSH3 0x2E3 DUP3 PUSH3 0x2B6 JUMP JUMPDEST SWAP1 POP SWAP2 SWAP1 POP JUMP JUMPDEST PUSH3 0x2F5 DUP2 PUSH3 0x2D6 JUMP JUMPDEST DUP2 EQ PUSH3 0x301 JUMPI PUSH1 0x0 DUP1 REVERT JUMPDEST POP JUMP JUMPDEST PUSH1 0x0 DUP2 MLOAD SWAP1 POP PUSH3 0x315 DUP2 PUSH3 0x2EA JUMP JUMPDEST SWAP3 SWAP2 POP POP JUMP JUMPDEST PUSH1 0x0 DUP1 PUSH1 0x40 DUP4 DUP6 SUB SLT ISZERO PUSH3 0x335 JUMPI PUSH3 0x334 PUSH3 0x2B1 JUMP JUMPDEST JUMPDEST PUSH1 0x0 PUSH3 0x345 DUP6 DUP3 DUP7 ADD PUSH3 0x304 JUMP JUMPDEST SWAP3 POP POP PUSH1 0x20 PUSH3 0x358 DUP6 DUP3 DUP7 ADD PUSH3 0x304 JUMP JUMPDEST SWAP2 POP POP SWAP3 POP SWAP3 SWAP1 POP JUMP JUMPDEST PUSH2 0xFB0 DUP1 PUSH3 0x372 PUSH1 0x0 CODECOPY PUSH1 0x0 RETURN INVALID PUSH1 0x80 PUSH1 0x40 MSTORE PUSH1 0x4 CALLDATASIZE LT PUSH2 0x55 JUMPI PUSH1 0x0 CALLDATALOAD PUSH1 0xE0 SHR DUP1 PUSH4 0x1F79A1E9 EQ PUSH2 0x5A JUMPI DUP1 PUSH4 0x49CE8997 EQ PUSH2 0x97 JUMPI DUP1 PUSH4 0x8BCA6D16 EQ PUSH2 0xD4 JUMPI DUP1 PUSH4 0xB6B55F25 EQ PUSH2 0xFF JUMPI DUP1 PUSH4 0xB8E79564 EQ PUSH2 0x11B JUMPI DUP1 PUSH4 0xC2B40AE4 EQ PUSH2 0x146 JUMPI JUMPDEST PUSH1 0x0 DUP1 REVERT JUMPDEST CALLVALUE DUP1 ISZERO PUSH2 0x66 JUMPI PUSH1 0x0 DUP1 REVERT JUMPDEST POP PUSH2 0x81 PUSH1 0x4 DUP1 CALLDATASIZE SUB DUP2 ADD SWAP1 PUSH2 0x7C SWAP2 SWAP1 PUSH2 0x761 JUMP JUMPDEST PUSH2 0x183 JUMP JUMPDEST PUSH1 0x40 MLOAD PUSH2 0x8E SWAP2 SWAP1 PUSH2 0x7A9 JUMP JUMPDEST PUSH1 0x40 MLOAD DUP1 SWAP2 SUB SWAP1 RETURN JUMPDEST CALLVALUE DUP1 ISZERO PUSH2 0xA3 JUMPI PUSH1 0x0 DUP1 REVERT JUMPDEST POP PUSH2 0xBE PUSH1 0x4 DUP1 CALLDATASIZE SUB DUP2 ADD SWAP1 PUSH2 0xB9 SWAP2 SWAP1 PUSH2 0x761 JUMP JUMPDEST PUSH2 0x1A3 JUMP JUMPDEST PUSH1 0x40 MLOAD PUSH2 0xCB SWAP2 SWAP1 PUSH2 0x7A9 JUMP JUMPDEST PUSH1 0x40 MLOAD DUP1 SWAP2 SUB SWAP1 RETURN JUMPDEST CALLVALUE DUP1 ISZERO PUSH2 0xE0 JUMPI PUSH1 0x0 DUP1 REVERT JUMPDEST POP PUSH2 0xE9 PUSH2 0x1C3 JUMP JUMPDEST PUSH1 0x40 MLOAD PUSH2 0xF6 SWAP2 SWAP1 PUSH2 0x7D3 JUMP JUMPDEST PUSH1 0x40 MLOAD DUP1 SWAP2 SUB SWAP1 RETURN JUMPDEST PUSH2 0x119 PUSH1 0x4 DUP1 CALLDATASIZE SUB DUP2 ADD SWAP1 PUSH2 0x114 SWAP2 SWAP1 PUSH2 0x761 JUMP JUMPDEST PUSH2 0x1C9 JUMP JUMPDEST STOP JUMPDEST CALLVALUE DUP1 ISZERO PUSH2 0x127 JUMPI PUSH1 0x0 DUP1 REVERT JUMPDEST POP PUSH2 0x130 PUSH2 0x632 JUMP JUMPDEST PUSH1 0x40 MLOAD PUSH2 0x13D SWAP2 SWAP1 PUSH2 0x80A JUMP JUMPDEST PUSH1 0x40 MLOAD DUP1 SWAP2 SUB SWAP1 RETURN JUMPDEST CALLVALUE DUP1 ISZERO PUSH2 0x152 JUMPI PUSH1 0x0 DUP1 REVERT JUMPDEST POP PUSH2 0x16D PUSH1 0x4 DUP1 CALLDATASIZE SUB DUP2 ADD SWAP1 PUSH2 0x168 SWAP2 SWAP1 PUSH2 0x761 JUMP JUMPDEST PUSH2 0x645 JUMP JUMPDEST PUSH1 0x40 MLOAD PUSH2 0x17A SWAP2 SWAP1 PUSH2 0x7A9 JUMP JUMPDEST PUSH1 0x40 MLOAD DUP1 SWAP2 SUB SWAP1 RETURN JUMPDEST PUSH1 0x6 PUSH1 0x20 MSTORE DUP1 PUSH1 0x0 MSTORE PUSH1 0x40 PUSH1 0x0 KECCAK256 PUSH1 0x0 SWAP2 POP SLOAD SWAP1 PUSH2 0x100 EXP SWAP1 DIV PUSH1 0xFF AND DUP2 JUMP JUMPDEST PUSH1 0x7 PUSH1 0x20 MSTORE DUP1 PUSH1 0x0 MSTORE PUSH1 0x40 PUSH1 0x0 KECCAK256 PUSH1 0x0 SWAP2 POP SLOAD SWAP1 PUSH2 0x100 EXP SWAP1 DIV PUSH1 0xFF AND DUP2 JUMP JUMPDEST PUSH1 0x2 SLOAD DUP2 JUMP JUMPDEST PUSH2 0x1D1 PUSH2 0x665 JUMP JUMPDEST PUSH1 0x2 SLOAD CALLVALUE EQ PUSH2 0x215 JUMPI PUSH1 0x40 MLOAD PUSH32 0x8C379A000000000000000000000000000000000000000000000000000000000 DUP2 MSTORE PUSH1 0x4 ADD PUSH2 0x20C SWAP1 PUSH2 0x8A8 JUMP JUMPDEST PUSH1 0x40 MLOAD DUP1 SWAP2 SUB SWAP1 REVERT JUMPDEST PUSH1 0x7 PUSH1 0x0 DUP3 DUP2 MSTORE PUSH1 0x20 ADD SWAP1 DUP2 MSTORE PUSH1 0x20 ADD PUSH1 0x0 KECCAK256 PUSH1 0x0 SWAP1 SLOAD SWAP1 PUSH2 0x100 EXP SWAP1 DIV PUSH1 0xFF AND ISZERO PUSH2 0x276 JUMPI PUSH1 0x40 MLOAD PUSH32 0x8C379A000000000000000000000000000000000000000000000000000000000 DUP2 MSTORE PUSH1 0x4 ADD PUSH2 0x26D SWAP1 PUSH2 0x914 JUMP JUMPDEST PUSH1 0x40 MLOAD DUP1 SWAP2 SUB SWAP1 REVERT JUMPDEST PUSH1 0x1 PUSH1 0x14 SWAP1 SLOAD SWAP1 PUSH2 0x100 EXP SWAP1 DIV PUSH1 0xFF AND PUSH1 0x2 PUSH2 0x292 SWAP2 SWAP1 PUSH2 0xA96 JUMP JUMPDEST PUSH1 0x3 SLOAD LT PUSH2 0x2D5 JUMPI PUSH1 0x40 MLOAD PUSH32 0x8C379A000000000000000000000000000000000000000000000000000000000 DUP2 MSTORE PUSH1 0x4 ADD PUSH2 0x2CC SWAP1 PUSH2 0xB53 JUMP JUMPDEST PUSH1 0x40 MLOAD DUP1 SWAP2 SUB SWAP1 REVERT JUMPDEST PUSH1 0x0 PUSH2 0x2DF PUSH2 0x6BE JUMP JUMPDEST PUSH2 0x2E7 PUSH2 0x6E1 JUMP JUMPDEST PUSH1 0x0 PUSH1 0x3 SLOAD SWAP1 POP PUSH1 0x0 DUP6 SWAP1 POP PUSH1 0x0 DUP1 PUSH2 0x2FE PUSH2 0x704 JUMP JUMPDEST PUSH1 0x0 JUMPDEST PUSH1 0x1 PUSH1 0x14 SWAP1 SLOAD SWAP1 PUSH2 0x100 EXP SWAP1 DIV PUSH1 0xFF AND PUSH1 0xFF AND DUP2 PUSH1 0xFF AND LT ISZERO PUSH2 0x56E JUMPI DUP5 PUSH1 0x5 PUSH1 0x0 PUSH1 0x1 PUSH1 0x14 SWAP1 SLOAD SWAP1 PUSH2 0x100 EXP SWAP1 DIV PUSH1 0xFF AND PUSH1 0xFF AND PUSH1 0xFF AND DUP2 MSTORE PUSH1 0x20 ADD SWAP1 DUP2 MSTORE PUSH1 0x20 ADD PUSH1 0x0 KECCAK256 DUP2 SWAP1 SSTORE POP PUSH1 0x0 PUSH1 0x2 DUP8 PUSH2 0x35A SWAP2 SWAP1 PUSH2 0xBA2 JUMP JUMPDEST SUB PUSH2 0x3E3 JUMPI DUP6 SWAP4 POP PUSH1 0x8 DUP2 PUSH1 0xFF AND PUSH1 0xA DUP2 LT PUSH2 0x379 JUMPI PUSH2 0x378 PUSH2 0xBD3 JUMP JUMPDEST JUMPDEST ADD SLOAD SWAP3 POP PUSH1 0x8 DUP2 PUSH1 0xFF AND PUSH1 0xA DUP2 LT PUSH2 0x394 JUMPI PUSH2 0x393 PUSH2 0xBD3 JUMP JUMPDEST JUMPDEST ADD SLOAD DUP9 DUP3 PUSH1 0xFF AND PUSH1 0xA DUP2 LT PUSH2 0x3AC JUMPI PUSH2 0x3AB PUSH2 0xBD3 JUMP JUMPDEST JUMPDEST PUSH1 0x20 MUL ADD DUP2 DUP2 MSTORE POP POP PUSH1 0x0 DUP8 DUP3 PUSH1 0xFF AND PUSH1 0xA DUP2 LT PUSH2 0x3CD JUMPI PUSH2 0x3CC PUSH2 0xBD3 JUMP JUMPDEST JUMPDEST PUSH1 0x20 MUL ADD SWAP1 PUSH1 0xFF AND SWAP1 DUP2 PUSH1 0xFF AND DUP2 MSTORE POP POP PUSH2 0x55B JUMP JUMPDEST PUSH1 0x5 PUSH1 0x0 DUP3 PUSH1 0xFF AND PUSH1 0xFF AND DUP2 MSTORE PUSH1 0x20 ADD SWAP1 DUP2 MSTORE PUSH1 0x20 ADD PUSH1 0x0 KECCAK256 SLOAD SWAP4 POP DUP5 SWAP3 POP PUSH1 0x5 PUSH1 0x0 DUP3 PUSH1 0xFF AND PUSH1 0xFF AND DUP2 MSTORE PUSH1 0x20 ADD SWAP1 DUP2 MSTORE PUSH1 0x20 ADD PUSH1 0x0 KECCAK256 SLOAD DUP9 DUP3 PUSH1 0xFF AND PUSH1 0xA DUP2 LT PUSH2 0x432 JUMPI PUSH2 0x431 PUSH2 0xBD3 JUMP JUMPDEST JUMPDEST PUSH1 0x20 MUL ADD DUP2 DUP2 MSTORE POP POP PUSH1 0x1 DUP8 DUP3 PUSH1 0xFF AND PUSH1 0xA DUP2 LT PUSH2 0x453 JUMPI PUSH2 0x452 PUSH2 0xBD3 JUMP JUMPDEST JUMPDEST PUSH1 0x20 MUL ADD SWAP1 PUSH1 0xFF AND SWAP1 DUP2 PUSH1 0xFF AND DUP2 MSTORE POP POP DUP4 DUP3 PUSH1 0x0 PUSH1 0x2 DUP2 LT PUSH2 0x479 JUMPI PUSH2 0x478 PUSH2 0xBD3 JUMP JUMPDEST JUMPDEST PUSH1 0x20 MUL ADD DUP2 DUP2 MSTORE POP POP DUP3 DUP3 PUSH1 0x1 PUSH1 0x2 DUP2 LT PUSH2 0x497 JUMPI PUSH2 0x496 PUSH2 0xBD3 JUMP JUMPDEST JUMPDEST PUSH1 0x20 MUL ADD DUP2 DUP2 MSTORE POP POP PUSH1 0x0 PUSH1 0x1 PUSH1 0x0 SWAP1 SLOAD SWAP1 PUSH2 0x100 EXP SWAP1 DIV PUSH20 0xFFFFFFFFFFFFFFFFFFFFFFFFFFFFFFFFFFFFFFFF AND PUSH20 0xFFFFFFFFFFFFFFFFFFFFFFFFFFFFFFFFFFFFFFFF AND PUSH4 0xD622E5A4 PUSH3 0x249F0 DUP6 DUP15 PUSH1 0x40 MLOAD DUP5 PUSH4 0xFFFFFFFF AND PUSH1 0xE0 SHL DUP2 MSTORE PUSH1 0x4 ADD PUSH2 0x503 SWAP3 SWAP2 SWAP1 PUSH2 0xCAD JUMP JUMPDEST PUSH1 0x20 PUSH1 0x40 MLOAD DUP1 DUP4 SUB DUP2 DUP8 DUP7 STATICCALL ISZERO DUP1 ISZERO PUSH2 0x520 JUMPI RETURNDATASIZE PUSH1 0x0 DUP1 RETURNDATACOPY RETURNDATASIZE PUSH1 0x0 REVERT JUMPDEST POP POP POP POP POP PUSH1 0x40 MLOAD RETURNDATASIZE PUSH1 0x1F NOT PUSH1 0x1F DUP3 ADD AND DUP3 ADD DUP1 PUSH1 0x40 MSTORE POP DUP2 ADD SWAP1 PUSH2 0x545 SWAP2 SWAP1 PUSH2 0xCEB JUMP JUMPDEST SWAP1 POP DUP1 SWAP6 POP PUSH1 0x2 DUP8 PUSH2 0x557 SWAP2 SWAP1 PUSH2 0xD18 JUMP JUMPDEST SWAP7 POP POP JUMPDEST DUP1 DUP1 PUSH2 0x566 SWAP1 PUSH2 0xD49 JUMP JUMPDEST SWAP2 POP POP PUSH2 0x301 JUMP JUMPDEST POP DUP4 SWAP8 POP PUSH1 0x1 PUSH1 0x4 PUSH1 0x0 DUP11 DUP2 MSTORE PUSH1 0x20 ADD SWAP1 DUP2 MSTORE PUSH1 0x20 ADD PUSH1 0x0 KECCAK256 PUSH1 0x0 PUSH2 0x100 EXP DUP2 SLOAD DUP2 PUSH1 0xFF MUL NOT AND SWAP1 DUP4 ISZERO ISZERO MUL OR SWAP1 SSTORE POP PUSH1 0x1 PUSH1 0x3 PUSH1 0x0 DUP3 DUP3 SLOAD PUSH2 0x5B1 SWAP2 SWAP1 PUSH2 0xD72 JUMP JUMPDEST SWAP3 POP POP DUP2 SWAP1 SSTORE POP PUSH1 0x1 PUSH1 0x7 PUSH1 0x0 DUP12 DUP2 MSTORE PUSH1 0x20 ADD SWAP1 DUP2 MSTORE PUSH1 0x20 ADD PUSH1 0x0 KECCAK256 PUSH1 0x0 PUSH2 0x100 EXP DUP2 SLOAD DUP2 PUSH1 0xFF MUL NOT AND SWAP1 DUP4 ISZERO ISZERO MUL OR SWAP1 SSTORE POP PUSH32 0xE6AB8667CB740D6C65A4AD321C031EB42F6C5085D5753238D1B2E1E370C13483 DUP9 DUP9 DUP9 PUSH1 0x40 MLOAD PUSH2 0x617 SWAP4 SWAP3 SWAP2 SWAP1 PUSH2 0xED5 JUMP JUMPDEST PUSH1 0x40 MLOAD DUP1 SWAP2 SUB SWAP1 LOG1 POP POP POP POP POP POP POP POP PUSH2 0x62F PUSH2 0x6B4 JUMP JUMPDEST POP JUMP JUMPDEST PUSH1 0x1 PUSH1 0x14 SWAP1 SLOAD SWAP1 PUSH2 0x100 EXP SWAP1 DIV PUSH1 0xFF AND DUP2 JUMP JUMPDEST PUSH1 0x4 PUSH1 0x20 MSTORE DUP1 PUSH1 0x0 MSTORE PUSH1 0x40 PUSH1 0x0 KECCAK256 PUSH1 0x0 SWAP2 POP SLOAD SWAP1 PUSH2 0x100 EXP SWAP1 DIV PUSH1 0xFF AND DUP2 JUMP JUMPDEST PUSH1 0x2 PUSH1 0x0 SLOAD SUB PUSH2 0x6AA JUMPI PUSH1 0x40 MLOAD PUSH32 0x8C379A000000000000000000000000000000000000000000000000000000000 DUP2 MSTORE PUSH1 0x4 ADD PUSH2 0x6A1 SWAP1 PUSH2 0xF5A JUMP JUMPDEST PUSH1 0x40 MLOAD DUP1 SWAP2 SUB SWAP1 REVERT JUMPDEST PUSH1 0x2 PUSH1 0x0 DUP2 SWAP1 SSTORE POP JUMP JUMPDEST PUSH1 0x1 PUSH1 0x0 DUP2 SWAP1 SSTORE POP JUMP JUMPDEST PUSH1 0x40 MLOAD DUP1 PUSH2 0x140 ADD PUSH1 0x40 MSTORE DUP1 PUSH1 0xA SWAP1 PUSH1 0x20 DUP3 MUL DUP1 CALLDATASIZE DUP4 CALLDATACOPY DUP1 DUP3 ADD SWAP2 POP POP SWAP1 POP POP SWAP1 JUMP JUMPDEST PUSH1 0x40 MLOAD DUP1 PUSH2 0x140 ADD PUSH1 0x40 MSTORE DUP1 PUSH1 0xA SWAP1 PUSH1 0x20 DUP3 MUL DUP1 CALLDATASIZE DUP4 CALLDATACOPY DUP1 DUP3 ADD SWAP2 POP POP SWAP1 POP POP SWAP1 JUMP JUMPDEST PUSH1 0x40 MLOAD DUP1 PUSH1 0x40 ADD PUSH1 0x40 MSTORE DUP1 PUSH1 0x2 SWAP1 PUSH1 0x20 DUP3 MUL DUP1 CALLDATASIZE DUP4 CALLDATACOPY DUP1 DUP3 ADD SWAP2 POP POP SWAP1 POP POP SWAP1 JUMP JUMPDEST PUSH1 0x0 DUP1 REVERT JUMPDEST PUSH1 0x0 DUP2 SWAP1 POP SWAP2 SWAP1 POP JUMP JUMPDEST PUSH2 0x73E DUP2 PUSH2 0x72B JUMP JUMPDEST DUP2 EQ PUSH2 0x749 JUMPI PUSH1 0x0 DUP1 REVERT JUMPDEST POP JUMP JUMPDEST PUSH1 0x0 DUP2 CALLDATALOAD SWAP1 POP PUSH2 0x75B DUP2 PUSH2 0x735 JUMP JUMPDEST SWAP3 SWAP2 POP POP JUMP JUMPDEST PUSH1 0x0 PUSH1 0x20 DUP3 DUP5 SUB SLT ISZERO PUSH2 0x777 JUMPI PUSH2 0x776 PUSH2 0x726 JUMP JUMPDEST JUMPDEST PUSH1 0x0 PUSH2 0x785 DUP5 DUP3 DUP6 ADD PUSH2 0x74C JUMP JUMPDEST SWAP2 POP POP SWAP3 SWAP2 POP POP JUMP JUMPDEST PUSH1 0x0 DUP2 ISZERO ISZERO SWAP1 POP SWAP2 SWAP1 POP JUMP JUMPDEST PUSH2 0x7A3 DUP2 PUSH2 0x78E JUMP JUMPDEST DUP3 MSTORE POP POP JUMP JUMPDEST PUSH1 0x0 PUSH1 0x20 DUP3 ADD SWAP1 POP PUSH2 0x7BE PUSH1 0x0 DUP4 ADD DUP5 PUSH2 0x79A JUMP JUMPDEST SWAP3 SWAP2 POP POP JUMP JUMPDEST PUSH2 0x7CD DUP2 PUSH2 0x72B JUMP JUMPDEST DUP3 MSTORE POP POP JUMP JUMPDEST PUSH1 0x0 PUSH1 0x20 DUP3 ADD SWAP1 POP PUSH2 0x7E8 PUSH1 0x0 DUP4 ADD DUP5 PUSH2 0x7C4 JUMP JUMPDEST SWAP3 SWAP2 POP POP JUMP JUMPDEST PUSH1 0x0 PUSH1 0xFF DUP3 AND SWAP1 POP SWAP2 SWAP1 POP JUMP JUMPDEST PUSH2 0x804 DUP2 PUSH2 0x7EE JUMP JUMPDEST DUP3 MSTORE POP POP JUMP JUMPDEST PUSH1 0x0 PUSH1 0x20 DUP3 ADD SWAP1 POP PUSH2 0x81F PUSH1 0x0 DUP4 ADD DUP5 PUSH2 0x7FB JUMP JUMPDEST SWAP3 SWAP2 POP POP JUMP JUMPDEST PUSH1 0x0 DUP3 DUP3 MSTORE PUSH1 0x20 DUP3 ADD SWAP1 POP SWAP3 SWAP2 POP POP JUMP JUMPDEST PUSH32 0x4F6E6C79206465706F736974206F6620302E3030312045544820697320616C6C PUSH1 0x0 DUP3 ADD MSTORE PUSH32 0x6F77656400000000000000000000000000000000000000000000000000000000 PUSH1 0x20 DUP3 ADD MSTORE POP JUMP JUMPDEST PUSH1 0x0 PUSH2 0x892 PUSH1 0x24 DUP4 PUSH2 0x825 JUMP JUMPDEST SWAP2 POP PUSH2 0x89D DUP3 PUSH2 0x836 JUMP JUMPDEST PUSH1 0x40 DUP3 ADD SWAP1 POP SWAP2 SWAP1 POP JUMP JUMPDEST PUSH1 0x0 PUSH1 0x20 DUP3 ADD SWAP1 POP DUP2 DUP2 SUB PUSH1 0x0 DUP4 ADD MSTORE PUSH2 0x8C1 DUP2 PUSH2 0x885 JUMP JUMPDEST SWAP1 POP SWAP2 SWAP1 POP JUMP JUMPDEST PUSH32 0x4475706C696361746520636F6D6D69746D656E74000000000000000000000000 PUSH1 0x0 DUP3 ADD MSTORE POP JUMP JUMPDEST PUSH1 0x0 PUSH2 0x8FE PUSH1 0x14 DUP4 PUSH2 0x825 JUMP JUMPDEST SWAP2 POP PUSH2 0x909 DUP3 PUSH2 0x8C8 JUMP JUMPDEST PUSH1 0x20 DUP3 ADD SWAP1 POP SWAP2 SWAP1 POP JUMP JUMPDEST PUSH1 0x0 PUSH1 0x20 DUP3 ADD SWAP1 POP DUP2 DUP2 SUB PUSH1 0x0 DUP4 ADD MSTORE PUSH2 0x92D DUP2 PUSH2 0x8F1 JUMP JUMPDEST SWAP1 POP SWAP2 SWAP1 POP JUMP JUMPDEST PUSH32 0x4E487B7100000000000000000000000000000000000000000000000000000000 PUSH1 0x0 MSTORE PUSH1 0x11 PUSH1 0x4 MSTORE PUSH1 0x24 PUSH1 0x0 REVERT JUMPDEST PUSH1 0x0 DUP2 PUSH1 0x1 SHR SWAP1 POP SWAP2 SWAP1 POP JUMP JUMPDEST PUSH1 0x0 DUP1 DUP3 SWAP2 POP DUP4 SWAP1 POP JUMPDEST PUSH1 0x1 DUP6 GT ISZERO PUSH2 0x9BA JUMPI DUP1 DUP7 DIV DUP2 GT ISZERO PUSH2 0x996 JUMPI PUSH2 0x995 PUSH2 0x934 JUMP JUMPDEST JUMPDEST PUSH1 0x1 DUP6 AND ISZERO PUSH2 0x9A5 JUMPI DUP1 DUP3 MUL SWAP2 POP JUMPDEST DUP1 DUP2 MUL SWAP1 POP PUSH2 0x9B3 DUP6 PUSH2 0x963 JUMP JUMPDEST SWAP5 POP PUSH2 0x97A JUMP JUMPDEST SWAP5 POP SWAP5 SWAP3 POP POP POP JUMP JUMPDEST PUSH1 0x0 DUP3 PUSH2 0x9D3 JUMPI PUSH1 0x1 SWAP1 POP PUSH2 0xA8F JUMP JUMPDEST DUP2 PUSH2 0x9E1 JUMPI PUSH1 0x0 SWAP1 POP PUSH2 0xA8F JUMP JUMPDEST DUP2 PUSH1 0x1 DUP2 EQ PUSH2 0x9F7 JUMPI PUSH1 0x2 DUP2 EQ PUSH2 0xA01 JUMPI PUSH2 0xA30 JUMP JUMPDEST PUSH1 0x1 SWAP2 POP POP PUSH2 0xA8F JUMP JUMPDEST PUSH1 0xFF DUP5 GT ISZERO PUSH2 0xA13 JUMPI PUSH2 0xA12 PUSH2 0x934 JUMP JUMPDEST JUMPDEST DUP4 PUSH1 0x2 EXP SWAP2 POP DUP5 DUP3 GT ISZERO PUSH2 0xA2A JUMPI PUSH2 0xA29 PUSH2 0x934 JUMP JUMPDEST JUMPDEST POP PUSH2 0xA8F JUMP JUMPDEST POP PUSH1 0x20 DUP4 LT PUSH2 0x133 DUP4 LT AND PUSH1 0x4E DUP5 LT PUSH1 0xB DUP5 LT AND OR ISZERO PUSH2 0xA65 JUMPI DUP3 DUP3 EXP SWAP1 POP DUP4 DUP2 GT ISZERO PUSH2 0xA60 JUMPI PUSH2 0xA5F PUSH2 0x934 JUMP JUMPDEST JUMPDEST PUSH2 0xA8F JUMP JUMPDEST PUSH2 0xA72 DUP5 DUP5 DUP5 PUSH1 0x1 PUSH2 0x970 JUMP JUMPDEST SWAP3 POP SWAP1 POP DUP2 DUP5 DIV DUP2 GT ISZERO PUSH2 0xA89 JUMPI PUSH2 0xA88 PUSH2 0x934 JUMP JUMPDEST JUMPDEST DUP2 DUP2 MUL SWAP1 POP JUMPDEST SWAP4 SWAP3 POP POP POP JUMP JUMPDEST PUSH1 0x0 PUSH2 0xAA1 DUP3 PUSH2 0x72B JUMP JUMPDEST SWAP2 POP PUSH2 0xAAC DUP4 PUSH2 0x7EE JUMP JUMPDEST SWAP3 POP PUSH2 0xAD9 PUSH32 0xFFFFFFFFFFFFFFFFFFFFFFFFFFFFFFFFFFFFFFFFFFFFFFFFFFFFFFFFFFFFFFFF DUP5 DUP5 PUSH2 0x9C3 JUMP JUMPDEST SWAP1 POP SWAP3 SWAP2 POP POP JUMP JUMPDEST PUSH32 0x4D65726B6C65207472656520686173206265656E2066696C6C65642E204E6F20 PUSH1 0x0 DUP3 ADD MSTORE PUSH32 0x6D6F7265206465706F7369742063616E206265206D6164650000000000000000 PUSH1 0x20 DUP3 ADD MSTORE POP JUMP JUMPDEST PUSH1 0x0 PUSH2 0xB3D PUSH1 0x38 DUP4 PUSH2 0x825 JUMP JUMPDEST SWAP2 POP PUSH2 0xB48 DUP3 PUSH2 0xAE1 JUMP JUMPDEST PUSH1 0x40 DUP3 ADD SWAP1 POP SWAP2 SWAP1 POP JUMP JUMPDEST PUSH1 0x0 PUSH1 0x20 DUP3 ADD SWAP1 POP DUP2 DUP2 SUB PUSH1 0x0 DUP4 ADD MSTORE PUSH2 0xB6C DUP2 PUSH2 0xB30 JUMP JUMPDEST SWAP1 POP SWAP2 SWAP1 POP JUMP JUMPDEST PUSH32 0x4E487B7100000000000000000000000000000000000000000000000000000000 PUSH1 0x0 MSTORE PUSH1 0x12 PUSH1 0x4 MSTORE PUSH1 0x24 PUSH1 0x0 REVERT JUMPDEST PUSH1 0x0 PUSH2 0xBAD DUP3 PUSH2 0x72B JUMP JUMPDEST SWAP2 POP PUSH2 0xBB8 DUP4 PUSH2 0x72B JUMP JUMPDEST SWAP3 POP DUP3 PUSH2 0xBC8 JUMPI PUSH2 0xBC7 PUSH2 0xB73 JUMP JUMPDEST JUMPDEST DUP3 DUP3 MOD SWAP1 POP SWAP3 SWAP2 POP POP JUMP JUMPDEST PUSH32 0x4E487B7100000000000000000000000000000000000000000000000000000000 PUSH1 0x0 MSTORE PUSH1 0x32 PUSH1 0x4 MSTORE PUSH1 0x24 PUSH1 0x0 REVERT JUMPDEST PUSH1 0x0 PUSH1 0x2 SWAP1 POP SWAP2 SWAP1 POP JUMP JUMPDEST PUSH1 0x0 DUP2 SWAP1 POP SWAP3 SWAP2 POP POP JUMP JUMPDEST PUSH1 0x0 DUP2 SWAP1 POP SWAP2 SWAP1 POP JUMP JUMPDEST PUSH2 0xC2B DUP2 PUSH2 0x72B JUMP JUMPDEST DUP3 MSTORE POP POP JUMP JUMPDEST PUSH1 0x0 PUSH2 0xC3D DUP4 DUP4 PUSH2 0xC22 JUMP JUMPDEST PUSH1 0x20 DUP4 ADD SWAP1 POP SWAP3 SWAP2 POP POP JUMP JUMPDEST PUSH1 0x0 PUSH1 0x20 DUP3 ADD SWAP1 POP SWAP2 SWAP1 POP JUMP JUMPDEST PUSH2 0xC5F DUP2 PUSH2 0xC02 JUMP JUMPDEST PUSH2 0xC69 DUP2 DUP5 PUSH2 0xC0D JUMP JUMPDEST SWAP3 POP PUSH2 0xC74 DUP3 PUSH2 0xC18 JUMP JUMPDEST DUP1 PUSH1 0x0 JUMPDEST DUP4 DUP2 LT ISZERO PUSH2 0xCA5 JUMPI DUP2 MLOAD PUSH2 0xC8C DUP8 DUP3 PUSH2 0xC31 JUMP JUMPDEST SWAP7 POP PUSH2 0xC97 DUP4 PUSH2 0xC49 JUMP JUMPDEST SWAP3 POP POP PUSH1 0x1 DUP2 ADD SWAP1 POP PUSH2 0xC78 JUMP JUMPDEST POP POP POP POP POP POP JUMP JUMPDEST PUSH1 0x0 PUSH1 0x60 DUP3 ADD SWAP1 POP PUSH2 0xCC2 PUSH1 0x0 DUP4 ADD DUP6 PUSH2 0xC56 JUMP JUMPDEST PUSH2 0xCCF PUSH1 0x40 DUP4 ADD DUP5 PUSH2 0x7C4 JUMP JUMPDEST SWAP4 SWAP3 POP POP POP JUMP JUMPDEST PUSH1 0x0 DUP2 MLOAD SWAP1 POP PUSH2 0xCE5 DUP2 PUSH2 0x735 JUMP JUMPDEST SWAP3 SWAP2 POP POP JUMP JUMPDEST PUSH1 0x0 PUSH1 0x20 DUP3 DUP5 SUB SLT ISZERO PUSH2 0xD01 JUMPI PUSH2 0xD00 PUSH2 0x726 JUMP JUMPDEST JUMPDEST PUSH1 0x0 PUSH2 0xD0F DUP5 DUP3 DUP6 ADD PUSH2 0xCD6 JUMP JUMPDEST SWAP2 POP POP SWAP3 SWAP2 POP POP JUMP JUMPDEST PUSH1 0x0 PUSH2 0xD23 DUP3 PUSH2 0x72B JUMP JUMPDEST SWAP2 POP PUSH2 0xD2E DUP4 PUSH2 0x72B JUMP JUMPDEST SWAP3 POP DUP3 PUSH2 0xD3E JUMPI PUSH2 0xD3D PUSH2 0xB73 JUMP JUMPDEST JUMPDEST DUP3 DUP3 DIV SWAP1 POP SWAP3 SWAP2 POP POP JUMP JUMPDEST PUSH1 0x0 PUSH2 0xD54 DUP3 PUSH2 0x7EE JUMP JUMPDEST SWAP2 POP PUSH1 0xFF DUP3 SUB PUSH2 0xD67 JUMPI PUSH2 0xD66 PUSH2 0x934 JUMP JUMPDEST JUMPDEST PUSH1 0x1 DUP3 ADD SWAP1 POP SWAP2 SWAP1 POP JUMP JUMPDEST PUSH1 0x0 PUSH2 0xD7D DUP3 PUSH2 0x72B JUMP JUMPDEST SWAP2 POP PUSH2 0xD88 DUP4 PUSH2 0x72B JUMP JUMPDEST SWAP3 POP DUP3 DUP3 ADD SWAP1 POP DUP1 DUP3 GT ISZERO PUSH2 0xDA0 JUMPI PUSH2 0xD9F PUSH2 0x934 JUMP JUMPDEST JUMPDEST SWAP3 SWAP2 POP POP JUMP JUMPDEST PUSH1 0x0 PUSH1 0xA SWAP1 POP SWAP2 SWAP1 POP JUMP JUMPDEST PUSH1 0x0 DUP2 SWAP1 POP SWAP3 SWAP2 POP POP JUMP JUMPDEST PUSH1 0x0 DUP2 SWAP1 POP SWAP2 SWAP1 POP JUMP JUMPDEST PUSH1 0x0 PUSH1 0x20 DUP3 ADD SWAP1 POP SWAP2 SWAP1 POP JUMP JUMPDEST PUSH2 0xDDC DUP2 PUSH2 0xDA6 JUMP JUMPDEST PUSH2 0xDE6 DUP2 DUP5 PUSH2 0xDB1 JUMP JUMPDEST SWAP3 POP PUSH2 0xDF1 DUP3 PUSH2 0xDBC JUMP JUMPDEST DUP1 PUSH1 0x0 JUMPDEST DUP4 DUP2 LT ISZERO PUSH2 0xE22 JUMPI DUP2 MLOAD PUSH2 0xE09 DUP8 DUP3 PUSH2 0xC31 JUMP JUMPDEST SWAP7 POP PUSH2 0xE14 DUP4 PUSH2 0xDC6 JUMP JUMPDEST SWAP3 POP POP PUSH1 0x1 DUP2 ADD SWAP1 POP PUSH2 0xDF5 JUMP JUMPDEST POP POP POP POP POP POP JUMP JUMPDEST PUSH1 0x0 PUSH1 0xA SWAP1 POP SWAP2 SWAP1 POP JUMP JUMPDEST PUSH1 0x0 DUP2 SWAP1 POP SWAP3 SWAP2 POP POP JUMP JUMPDEST PUSH1 0x0 DUP2 SWAP1 POP SWAP2 SWAP1 POP JUMP JUMPDEST PUSH2 0xE53 DUP2 PUSH2 0x7EE JUMP JUMPDEST DUP3 MSTORE POP POP JUMP JUMPDEST PUSH1 0x0 PUSH2 0xE65 DUP4 DUP4 PUSH2 0xE4A JUMP JUMPDEST PUSH1 0x20 DUP4 ADD SWAP1 POP SWAP3 SWAP2 POP POP JUMP JUMPDEST PUSH1 0x0 PUSH1 0x20 DUP3 ADD SWAP1 POP SWAP2 SWAP1 POP JUMP JUMPDEST PUSH2 0xE87 DUP2 PUSH2 0xE2A JUMP JUMPDEST PUSH2 0xE91 DUP2 DUP5 PUSH2 0xE35 JUMP JUMPDEST SWAP3 POP PUSH2 0xE9C DUP3 PUSH2 0xE40 JUMP JUMPDEST DUP1 PUSH1 0x0 JUMPDEST DUP4 DUP2 LT ISZERO PUSH2 0xECD JUMPI DUP2 MLOAD PUSH2 0xEB4 DUP8 DUP3 PUSH2 0xE59 JUMP JUMPDEST SWAP7 POP PUSH2 0xEBF DUP4 PUSH2 0xE71 JUMP JUMPDEST SWAP3 POP POP PUSH1 0x1 DUP2 ADD SWAP1 POP PUSH2 0xEA0 JUMP JUMPDEST POP POP POP POP POP POP JUMP JUMPDEST PUSH1 0x0 PUSH2 0x2A0 DUP3 ADD SWAP1 POP PUSH2 0xEEB PUSH1 0x0 DUP4 ADD DUP7 PUSH2 0x7C4 JUMP JUMPDEST PUSH2 0xEF8 PUSH1 0x20 DUP4 ADD DUP6 PUSH2 0xDD3 JUMP JUMPDEST PUSH2 0xF06 PUSH2 0x160 DUP4 ADD DUP5 PUSH2 0xE7E JUMP JUMPDEST SWAP5 SWAP4 POP POP POP POP JUMP JUMPDEST PUSH32 0x5265656E7472616E637947756172643A207265656E7472616E742063616C6C00 PUSH1 0x0 DUP3 ADD MSTORE POP JUMP JUMPDEST PUSH1 0x0 PUSH2 0xF44 PUSH1 0x1F DUP4 PUSH2 0x825 JUMP JUMPDEST SWAP2 POP PUSH2 0xF4F DUP3 PUSH2 0xF0E JUMP JUMPDEST PUSH1 0x20 DUP3 ADD SWAP1 POP SWAP2 SWAP1 POP JUMP JUMPDEST PUSH1 0x0 PUSH1 0x20 DUP3 ADD SWAP1 POP DUP2 DUP2 SUB PUSH1 0x0 DUP4 ADD MSTORE PUSH2 0xF73 DUP2 PUSH2 0xF37 JUMP JUMPDEST SWAP1 POP SWAP2 SWAP1 POP JUMP INVALID LOG2 PUSH5 0x6970667358 0x22 SLT KECCAK256 ISZERO 0xDF COINBASE 0xCB PUSH32 0x6450ECCAFBB61250BF70B92D156117DAAC752693E99EA82F806E3164736F6C63 NUMBER STOP ADDMOD GT STOP CALLER "
        },
        "methodIdentifiers": {
          "commitments(uint256)": "49ce8997",
          "denomination()": "8bca6d16",
          "deposit(uint256)": "b6b55f25",
          "nullifierHashes(uint256)": "1f79a1e9",
          "roots(uint256)": "c2b40ae4",
          "treeLevel()": "b8e79564"
        }
      }
    }
  }
}