{
  "_format": "hh-sol-artifact-1",
  "contractName": "Shadow",
  "sourceName": "contracts/Shadow.sol",
  "abi": [
    {
      "inputs": [
        {
          "internalType": "address",
          "name": "_hasher",
          "type": "address"
        },
        {
          "internalType": "address",
          "name": "_verifier",
          "type": "address"
        }
      ],
      "stateMutability": "nonpayable",
      "type": "constructor"
    },
    {
      "anonymous": false,
      "inputs": [
        {
          "indexed": false,
          "internalType": "uint256",
          "name": "root",
          "type": "uint256"
        },
        {
          "indexed": false,
          "internalType": "uint256[10]",
          "name": "hashPairings",
          "type": "uint256[10]"
        },
        {
          "indexed": false,
          "internalType": "uint8[10]",
          "name": "pairDirection",
          "type": "uint8[10]"
        }
      ],
      "name": "Deposit",
      "type": "event"
    },
    {
      "anonymous": false,
      "inputs": [
        {
          "indexed": false,
          "internalType": "address",
          "name": "to",
          "type": "address"
        },
        {
          "indexed": false,
          "internalType": "uint256",
          "name": "nullifierHash",
          "type": "uint256"
        }
      ],
      "name": "Withdrawal",
      "type": "event"
    },
    {
      "inputs": [
        {
          "internalType": "uint256",
          "name": "",
          "type": "uint256"
        }
      ],
      "name": "commitments",
      "outputs": [
        {
          "internalType": "bool",
          "name": "",
          "type": "bool"
        }
      ],
      "stateMutability": "view",
      "type": "function"
    },
    {
      "inputs": [],
      "name": "denomination",
      "outputs": [
        {
          "internalType": "uint256",
          "name": "",
          "type": "uint256"
        }
      ],
      "stateMutability": "view",
      "type": "function"
    },
    {
      "inputs": [
        {
          "internalType": "uint256",
          "name": "_commitment",
          "type": "uint256"
        }
      ],
      "name": "deposit",
      "outputs": [],
      "stateMutability": "payable",
      "type": "function"
    },
    {
      "inputs": [
        {
          "internalType": "uint256",
          "name": "",
          "type": "uint256"
        }
      ],
      "name": "nullifierHashes",
      "outputs": [
        {
          "internalType": "bool",
          "name": "",
          "type": "bool"
        }
      ],
      "stateMutability": "view",
      "type": "function"
    },
    {
      "inputs": [
        {
          "internalType": "uint256",
          "name": "",
          "type": "uint256"
        }
      ],
      "name": "roots",
      "outputs": [
        {
          "internalType": "bool",
          "name": "",
          "type": "bool"
        }
      ],
      "stateMutability": "view",
      "type": "function"
    },
    {
      "inputs": [],
      "name": "treeLevel",
      "outputs": [
        {
          "internalType": "uint8",
          "name": "",
          "type": "uint8"
        }
      ],
      "stateMutability": "view",
      "type": "function"
    },
    {
      "inputs": [
        {
          "internalType": "uint256[2]",
          "name": "_pA",
          "type": "uint256[2]"
        },
        {
          "internalType": "uint256[2][2]",
          "name": "_pB",
          "type": "uint256[2][2]"
        },
        {
          "internalType": "uint256[2]",
          "name": "_pC",
          "type": "uint256[2]"
        },
        {
          "internalType": "uint256[2]",
          "name": "_pubSignals",
          "type": "uint256[2]"
        }
      ],
      "name": "withdraw",
      "outputs": [],
      "stateMutability": "payable",
      "type": "function"
    }
  ],
  "bytecode": "0x6080604052600a600260146101000a81548160ff021916908360ff16021790555066038d7ea4c6800060035560006004556040518061014001604052807f33418cd1669b4e7f4bf473ec2db9a489b3d6f9f11b91d0b3b6004432ab53d60b81526020017f350ffb7c45ccf8940c163b192252495b614def57272b6f8d9a53a5b3e44ef8bd81526020017fc8acb7af851baf91a82b1ad46b01ac506ce80387170890dea377d21e8520258481526020017f5171d273154b2764aa5903210e16bd1899b18648d1358d41887a113227e9acc581526020017f986c06cb04d613f57cf7a1da410e0f22c794e1ec1ae125898cfc9662a5e5be5981526020017f6eb9a05106eff3031621027680204b2e9326b0e5191bd62f3cd7bf7f6d94d02781526020017fa1cbc8691493398c061f547b4882edbb6a38ce1730c8a2605e9d8138d4ad122681526020017f850aa72f3d8bc65181e9c29d76f7614e2f939ade9442abac29fc8a0329deeffd81526020017fe9c6f678752dbfc89028bf8b9b1cce608b34b742b75fbae878ec2c6ae803dc1e81526020017fa9e22c2e1f4531bc4389032bb472b97c25a7298d27ba4fefd75439a1be46f77f815250600990600a620001c89291906200028e565b50348015620001d657600080fd5b5060405162001c5a38038062001c5a8339818101604052810190620001fc91906200035c565b600160008190555081600260006101000a81548173ffffffffffffffffffffffffffffffffffffffff021916908373ffffffffffffffffffffffffffffffffffffffff16021790555080600160006101000a81548173ffffffffffffffffffffffffffffffffffffffff021916908373ffffffffffffffffffffffffffffffffffffffff1602179055505050620003a3565b82600a8101928215620002c0579160200282015b82811115620002bf578251825591602001919060010190620002a2565b5b509050620002cf9190620002d3565b5090565b5b80821115620002ee576000816000905550600101620002d4565b5090565b600080fd5b600073ffffffffffffffffffffffffffffffffffffffff82169050919050565b60006200032482620002f7565b9050919050565b620003368162000317565b81146200034257600080fd5b50565b60008151905062000356816200032b565b92915050565b60008060408385031215620003765762000375620002f2565b5b6000620003868582860162000345565b9250506020620003998582860162000345565b9150509250929050565b6118a780620003b36000396000f3fe6080604052600436106100705760003560e01c8063b6b55f251161004e578063b6b55f251461011a578063b8e7956414610136578063c2b40ae414610161578063c78784d71461019e57610070565b80631f79a1e91461007557806349ce8997146100b25780638bca6d16146100ef575b600080fd5b34801561008157600080fd5b5061009c60048036038101906100979190610b26565b6101ba565b6040516100a99190610b6e565b60405180910390f35b3480156100be57600080fd5b506100d960048036038101906100d49190610b26565b6101da565b6040516100e69190610b6e565b60405180910390f35b3480156100fb57600080fd5b506101046101fa565b6040516101119190610b98565b60405180910390f35b610134600480360381019061012f9190610b26565b610200565b005b34801561014257600080fd5b5061014b610669565b6040516101589190610bcf565b60405180910390f35b34801561016d57600080fd5b5061018860048036038101906101839190610b26565b61067c565b6040516101959190610b6e565b60405180910390f35b6101b860048036038101906101b39190610c33565b61069c565b005b60076020528060005260406000206000915054906101000a900460ff1681565b60086020528060005260406000206000915054906101000a900460ff1681565b60035481565b610208610a2a565b600354341461024c576040517f08c379a000000000000000000000000000000000000000000000000000000000815260040161024390610d1f565b60405180910390fd5b6008600082815260200190815260200160002060009054906101000a900460ff16156102ad576040517f08c379a00000000000000000000000000000000000000000000000000000000081526004016102a490610d8b565b60405180910390fd5b600260149054906101000a900460ff1660026102c99190610f0d565b6004541061030c576040517f08c379a000000000000000000000000000000000000000000000000000000000815260040161030390610fca565b60405180910390fd5b6000610316610a83565b61031e610aa6565b600060045490506000859050600080610335610ac9565b60005b600260149054906101000a900460ff1660ff168160ff1610156105a5578460066000600260149054906101000a900460ff1660ff1660ff1681526020019081526020016000208190555060006002876103919190611019565b0361041a5785935060098160ff16600a81106103b0576103af61104a565b5b0154925060098160ff16600a81106103cb576103ca61104a565b5b0154888260ff16600a81106103e3576103e261104a565b5b6020020181815250506000878260ff16600a81106104045761040361104a565b5b602002019060ff16908160ff1681525050610592565b600660008260ff1660ff168152602001908152602001600020549350849250600660008260ff1660ff16815260200190815260200160002054888260ff16600a81106104695761046861104a565b5b6020020181815250506001878260ff16600a811061048a5761048961104a565b5b602002019060ff16908160ff168152505083826000600281106104b0576104af61104a565b5b60200201818152505082826001600281106104ce576104cd61104a565b5b6020020181815250506000600260009054906101000a900473ffffffffffffffffffffffffffffffffffffffff1673ffffffffffffffffffffffffffffffffffffffff1663d622e5a4620249f0858e6040518463ffffffff1660e01b815260040161053a929190611124565b6020604051808303818786fa158015610557573d6000803e3d6000fd5b50505050506040513d601f19601f8201168201806040525081019061057c9190611162565b905080955060028761058e919061118f565b9650505b808061059d906111c0565b915050610338565b508397506001600560008a815260200190815260200160002060006101000a81548160ff0219169083151502179055506001600460008282546105e891906111e9565b925050819055506001600860008b815260200190815260200160002060006101000a81548160ff0219169083151502179055507fe6ab8667cb740d6c65a4ad321c031eb42f6c5085d5753238d1b2e1e370c1348388888860405161064e9392919061134c565b60405180910390a15050505050505050610666610a79565b50565b600260149054906101000a900460ff1681565b60056020528060005260406000206000915054906101000a900460ff1681565b6106a4610a2a565b6000816000600281106106ba576106b961104a565b5b602002013590506000826001600281106106d7576106d661104a565b5b602002013590506007600082815260200190815260200160002060009054906101000a900460ff161561073f576040517f08c379a0000000000000000000000000000000000000000000000000000000008152600401610736906113d1565b60405180910390fd5b6005600083815260200190815260200160002060009054906101000a900460ff1661079f576040517f08c379a00000000000000000000000000000000000000000000000000000000081526004016107969061143d565b60405180910390fd5b60003373ffffffffffffffffffffffffffffffffffffffff1690506000600160009054906101000a900473ffffffffffffffffffffffffffffffffffffffff1673ffffffffffffffffffffffffffffffffffffffff1688888860405180606001604052808981526020018881526020018781525060405160240161082694939291906115b9565b6040516020818303038152906040526311479fea60e01b6020820180517bffffffffffffffffffffffffffffffffffffffffffffffffffffffff83818316178352505050506040516108789190611671565b6000604051808303816000865af19150503d80600081146108b5576040519150601f19603f3d011682016040523d82523d6000602084013e6108ba565b606091505b50509050806108fe576040517f08c379a00000000000000000000000000000000000000000000000000000000081526004016108f5906116d4565b60405180910390fd5b60016007600085815260200190815260200160002060006101000a81548160ff021916908315150217905550600033905060008173ffffffffffffffffffffffffffffffffffffffff166003546040516109579061171a565b60006040518083038185875af1925050503d8060008114610994576040519150601f19603f3d011682016040523d82523d6000602084013e610999565b606091505b50509050806109dd576040517f08c379a00000000000000000000000000000000000000000000000000000000081526004016109d49061177b565b60405180910390fd5b7f7fcf532c15f0a6db0bd6d0e038bea71d30d808c7d98cb3bf7268a95bf5081b653386604051610a0e9291906117dc565b60405180910390a1505050505050610a24610a79565b50505050565b600260005403610a6f576040517f08c379a0000000000000000000000000000000000000000000000000000000008152600401610a6690611851565b60405180910390fd5b6002600081905550565b6001600081905550565b604051806101400160405280600a90602082028036833780820191505090505090565b604051806101400160405280600a90602082028036833780820191505090505090565b6040518060400160405280600290602082028036833780820191505090505090565b600080fd5b6000819050919050565b610b0381610af0565b8114610b0e57600080fd5b50565b600081359050610b2081610afa565b92915050565b600060208284031215610b3c57610b3b610aeb565b5b6000610b4a84828501610b11565b91505092915050565b60008115159050919050565b610b6881610b53565b82525050565b6000602082019050610b836000830184610b5f565b92915050565b610b9281610af0565b82525050565b6000602082019050610bad6000830184610b89565b92915050565b600060ff82169050919050565b610bc981610bb3565b82525050565b6000602082019050610be46000830184610bc0565b92915050565b600080fd5b600081905082602060020282011115610c0b57610c0a610bea565b5b92915050565b600081905082604060020282011115610c2d57610c2c610bea565b5b92915050565b6000806000806101408587031215610c4e57610c4d610aeb565b5b6000610c5c87828801610bef565b9450506040610c6d87828801610c11565b93505060c0610c7e87828801610bef565b925050610100610c9087828801610bef565b91505092959194509250565b600082825260208201905092915050565b7f4f6e6c79206465706f736974206f6620302e3030312045544820697320616c6c60008201527f6f77656400000000000000000000000000000000000000000000000000000000602082015250565b6000610d09602483610c9c565b9150610d1482610cad565b604082019050919050565b60006020820190508181036000830152610d3881610cfc565b9050919050565b7f4475706c696361746520636f6d6d69746d656e74000000000000000000000000600082015250565b6000610d75601483610c9c565b9150610d8082610d3f565b602082019050919050565b60006020820190508181036000830152610da481610d68565b9050919050565b7f4e487b7100000000000000000000000000000000000000000000000000000000600052601160045260246000fd5b60008160011c9050919050565b6000808291508390505b6001851115610e3157808604811115610e0d57610e0c610dab565b5b6001851615610e1c5780820291505b8081029050610e2a85610dda565b9450610df1565b94509492505050565b600082610e4a5760019050610f06565b81610e585760009050610f06565b8160018114610e6e5760028114610e7857610ea7565b6001915050610f06565b60ff841115610e8a57610e89610dab565b5b8360020a915084821115610ea157610ea0610dab565b5b50610f06565b5060208310610133831016604e8410600b8410161715610edc5782820a905083811115610ed757610ed6610dab565b5b610f06565b610ee98484846001610de7565b92509050818404811115610f0057610eff610dab565b5b81810290505b9392505050565b6000610f1882610af0565b9150610f2383610bb3565b9250610f507fffffffffffffffffffffffffffffffffffffffffffffffffffffffffffffffff8484610e3a565b905092915050565b7f4d65726b6c65207472656520686173206265656e2066696c6c65642e204e6f2060008201527f6d6f7265206465706f7369742063616e206265206d6164650000000000000000602082015250565b6000610fb4603883610c9c565b9150610fbf82610f58565b604082019050919050565b60006020820190508181036000830152610fe381610fa7565b9050919050565b7f4e487b7100000000000000000000000000000000000000000000000000000000600052601260045260246000fd5b600061102482610af0565b915061102f83610af0565b92508261103f5761103e610fea565b5b828206905092915050565b7f4e487b7100000000000000000000000000000000000000000000000000000000600052603260045260246000fd5b600060029050919050565b600081905092915050565b6000819050919050565b6110a281610af0565b82525050565b60006110b48383611099565b60208301905092915050565b6000602082019050919050565b6110d681611079565b6110e08184611084565b92506110eb8261108f565b8060005b8381101561111c57815161110387826110a8565b965061110e836110c0565b9250506001810190506110ef565b505050505050565b600060608201905061113960008301856110cd565b6111466040830184610b89565b9392505050565b60008151905061115c81610afa565b92915050565b60006020828403121561117857611177610aeb565b5b60006111868482850161114d565b91505092915050565b600061119a82610af0565b91506111a583610af0565b9250826111b5576111b4610fea565b5b828204905092915050565b60006111cb82610bb3565b915060ff82036111de576111dd610dab565b5b600182019050919050565b60006111f482610af0565b91506111ff83610af0565b925082820190508082111561121757611216610dab565b5b92915050565b6000600a9050919050565b600081905092915050565b6000819050919050565b6000602082019050919050565b6112538161121d565b61125d8184611228565b925061126882611233565b8060005b8381101561129957815161128087826110a8565b965061128b8361123d565b92505060018101905061126c565b505050505050565b6000600a9050919050565b600081905092915050565b6000819050919050565b6112ca81610bb3565b82525050565b60006112dc83836112c1565b60208301905092915050565b6000602082019050919050565b6112fe816112a1565b61130881846112ac565b9250611313826112b7565b8060005b8381101561134457815161132b87826112d0565b9650611336836112e8565b925050600181019050611317565b505050505050565b60006102a0820190506113626000830186610b89565b61136f602083018561124a565b61137d6101608301846112f5565b949350505050565b7f416c7265616479207370656e7400000000000000000000000000000000000000600082015250565b60006113bb600d83610c9c565b91506113c682611385565b602082019050919050565b600060208201905081810360008301526113ea816113ae565b9050919050565b7f496e76616c696420726f6f740000000000000000000000000000000000000000600082015250565b6000611427600c83610c9c565b9150611432826113f1565b602082019050919050565b600060208201905081810360008301526114568161141a565b9050919050565b82818337505050565b6114726040838361145d565b5050565b600060029050919050565b600081905092915050565b6000819050919050565b6114a26040838361145d565b5050565b60006114b28383611496565b60408301905092915050565b600082905092915050565b6000604082019050919050565b6114df81611476565b6114e98184611481565b92506114f48261148c565b8060005b8381101561152d5761150a82846114be565b61151487826114a6565b965061151f836114c9565b9250506001810190506114f8565b505050505050565b600060039050919050565b600081905092915050565b6000819050919050565b6000602082019050919050565b61156b81611535565b6115758184611540565b92506115808261154b565b8060005b838110156115b157815161159887826110a8565b96506115a383611555565b925050600181019050611584565b505050505050565b6000610160820190506115cf6000830187611466565b6115dc60408301866114d6565b6115e960c0830185611466565b6115f7610100830184611562565b95945050505050565b600081519050919050565b600081905092915050565b60005b83811015611634578082015181840152602081019050611619565b60008484015250505050565b600061164b82611600565b611655818561160b565b9350611665818560208601611616565b80840191505092915050565b600061167d8284611640565b915081905092915050565b7f496e76616c69642070726f6f6600000000000000000000000000000000000000600082015250565b60006116be600d83610c9c565b91506116c982611688565b602082019050919050565b600060208201905081810360008301526116ed816116b1565b9050919050565b50565b600061170460008361160b565b915061170f826116f4565b600082019050919050565b6000611725826116f7565b9150819050919050565b7f5769746864726177206661696c65640000000000000000000000000000000000600082015250565b6000611765600f83610c9c565b91506117708261172f565b602082019050919050565b6000602082019050818103600083015261179481611758565b9050919050565b600073ffffffffffffffffffffffffffffffffffffffff82169050919050565b60006117c68261179b565b9050919050565b6117d6816117bb565b82525050565b60006040820190506117f160008301856117cd565b6117fe6020830184610b89565b9392505050565b7f5265656e7472616e637947756172643a207265656e7472616e742063616c6c00600082015250565b600061183b601f83610c9c565b915061184682611805565b602082019050919050565b6000602082019050818103600083015261186a8161182e565b905091905056fea2646970667358221220533738b7322887035dc8b2383a7f7c8e0ab3530b042f855d53a8dd3f4408cf9364736f6c63430008110033",
  "linkReferences": {},
  "deployedLinkReferences": {}
}