{
  "_format": "hh-sol-artifact-1",
  "contractName": "Shadow",
  "sourceName": "contracts/Shadow.sol",
  "abi": [
    {
      "inputs": [
        {
          "internalType": "address",
          "name": "_hasher",
          "type": "address"
        },
        {
          "internalType": "address",
          "name": "_verifier",
          "type": "address"
        }
      ],
      "stateMutability": "nonpayable",
      "type": "constructor"
    },
    {
      "anonymous": false,
      "inputs": [
        {
          "indexed": false,
          "internalType": "uint256",
          "name": "root",
          "type": "uint256"
        },
        {
          "indexed": false,
          "internalType": "uint256[10]",
          "name": "hashPairings",
          "type": "uint256[10]"
        },
        {
          "indexed": false,
          "internalType": "uint8[10]",
          "name": "pairDirection",
          "type": "uint8[10]"
        }
      ],
      "name": "Deposit",
      "type": "event"
    },
    {
      "anonymous": false,
      "inputs": [
        {
          "indexed": false,
          "internalType": "address",
          "name": "to",
          "type": "address"
        },
        {
          "indexed": false,
          "internalType": "uint256",
          "name": "nullifierHash",
          "type": "uint256"
        }
      ],
      "name": "Withdrawal",
      "type": "event"
    },
    {
      "inputs": [
        {
          "internalType": "uint256",
          "name": "",
          "type": "uint256"
        }
      ],
      "name": "commitments",
      "outputs": [
        {
          "internalType": "bool",
          "name": "",
          "type": "bool"
        }
      ],
      "stateMutability": "view",
      "type": "function"
    },
    {
      "inputs": [],
      "name": "denomination",
      "outputs": [
        {
          "internalType": "uint256",
          "name": "",
          "type": "uint256"
        }
      ],
      "stateMutability": "view",
      "type": "function"
    },
    {
      "inputs": [
        {
          "internalType": "uint256",
          "name": "_commitment",
          "type": "uint256"
        }
      ],
      "name": "deposit",
      "outputs": [],
      "stateMutability": "payable",
      "type": "function"
    },
    {
      "inputs": [
        {
          "internalType": "uint256",
          "name": "",
          "type": "uint256"
        }
      ],
      "name": "nullifierHashes",
      "outputs": [
        {
          "internalType": "bool",
          "name": "",
          "type": "bool"
        }
      ],
      "stateMutability": "view",
      "type": "function"
    },
    {
      "inputs": [
        {
          "internalType": "uint256",
          "name": "",
          "type": "uint256"
        }
      ],
      "name": "roots",
      "outputs": [
        {
          "internalType": "bool",
          "name": "",
          "type": "bool"
        }
      ],
      "stateMutability": "view",
      "type": "function"
    },
    {
      "inputs": [],
      "name": "treeLevel",
      "outputs": [
        {
          "internalType": "uint8",
          "name": "",
          "type": "uint8"
        }
      ],
      "stateMutability": "view",
      "type": "function"
    },
    {
      "inputs": [
        {
          "internalType": "uint256[2]",
          "name": "_pA",
          "type": "uint256[2]"
        },
        {
          "internalType": "uint256[2][2]",
          "name": "_pB",
          "type": "uint256[2][2]"
        },
        {
          "internalType": "uint256[2]",
          "name": "_pC",
          "type": "uint256[2]"
        },
        {
          "internalType": "uint256[2]",
          "name": "_pubSignals",
          "type": "uint256[2]"
        },
        {
          "internalType": "address",
          "name": "recipient",
          "type": "address"
        }
      ],
      "name": "withdraw",
      "outputs": [],
      "stateMutability": "payable",
      "type": "function"
    }
  ],
  "bytecode": "0x6080604052600a600260146101000a81548160ff021916908360ff16021790555066038d7ea4c6800060035560006004556040518061014001604052807f33418cd1669b4e7f4bf473ec2db9a489b3d6f9f11b91d0b3b6004432ab53d60b81526020017f350ffb7c45ccf8940c163b192252495b614def57272b6f8d9a53a5b3e44ef8bd81526020017fc8acb7af851baf91a82b1ad46b01ac506ce80387170890dea377d21e8520258481526020017f5171d273154b2764aa5903210e16bd1899b18648d1358d41887a113227e9acc581526020017f986c06cb04d613f57cf7a1da410e0f22c794e1ec1ae125898cfc9662a5e5be5981526020017f6eb9a05106eff3031621027680204b2e9326b0e5191bd62f3cd7bf7f6d94d02781526020017fa1cbc8691493398c061f547b4882edbb6a38ce1730c8a2605e9d8138d4ad122681526020017f850aa72f3d8bc65181e9c29d76f7614e2f939ade9442abac29fc8a0329deeffd81526020017fe9c6f678752dbfc89028bf8b9b1cce608b34b742b75fbae878ec2c6ae803dc1e81526020017fa9e22c2e1f4531bc4389032bb472b97c25a7298d27ba4fefd75439a1be46f77f815250600990600a620001c89291906200028e565b50348015620001d657600080fd5b5060405162001c4138038062001c418339818101604052810190620001fc91906200035c565b600160008190555081600260006101000a81548173ffffffffffffffffffffffffffffffffffffffff021916908373ffffffffffffffffffffffffffffffffffffffff16021790555080600160006101000a81548173ffffffffffffffffffffffffffffffffffffffff021916908373ffffffffffffffffffffffffffffffffffffffff1602179055505050620003a3565b82600a8101928215620002c0579160200282015b82811115620002bf578251825591602001919060010190620002a2565b5b509050620002cf9190620002d3565b5090565b5b80821115620002ee576000816000905550600101620002d4565b5090565b600080fd5b600073ffffffffffffffffffffffffffffffffffffffff82169050919050565b60006200032482620002f7565b9050919050565b620003368162000317565b81146200034257600080fd5b50565b60008151905062000356816200032b565b92915050565b60008060408385031215620003765762000375620002f2565b5b6000620003868582860162000345565b9250506020620003998582860162000345565b9150509250929050565b61188e80620003b36000396000f3fe6080604052600436106100705760003560e01c80639033bfc81161004e5780639033bfc81461011a578063b6b55f2514610136578063b8e7956414610152578063c2b40ae41461017d57610070565b80631f79a1e91461007557806349ce8997146100b25780638bca6d16146100ef575b600080fd5b34801561008157600080fd5b5061009c60048036038101906100979190610b18565b6101ba565b6040516100a99190610b60565b60405180910390f35b3480156100be57600080fd5b506100d960048036038101906100d49190610b18565b6101da565b6040516100e69190610b60565b60405180910390f35b3480156100fb57600080fd5b506101046101fa565b6040516101119190610b8a565b60405180910390f35b610134600480360381019061012f9190610c4c565b610200565b005b610150600480360381019061014b9190610b18565b61058f565b005b34801561015e57600080fd5b506101676109e9565b6040516101749190610ce6565b60405180910390f35b34801561018957600080fd5b506101a4600480360381019061019f9190610b18565b6109fc565b6040516101b19190610b60565b60405180910390f35b60076020528060005260406000206000915054906101000a900460ff1681565b60086020528060005260406000206000915054906101000a900460ff1681565b60035481565b610208610a1c565b60008260006002811061021e5761021d610d01565b5b6020020135905060008360016002811061023b5761023a610d01565b5b602002013590506007600082815260200190815260200160002060009054906101000a900460ff16156102a3576040517f08c379a000000000000000000000000000000000000000000000000000000000815260040161029a90610d8d565b60405180910390fd5b6005600083815260200190815260200160002060009054906101000a900460ff16610303576040517f08c379a00000000000000000000000000000000000000000000000000000000081526004016102fa90610df9565b60405180910390fd5b60008373ffffffffffffffffffffffffffffffffffffffff1690506000600160009054906101000a900473ffffffffffffffffffffffffffffffffffffffff1673ffffffffffffffffffffffffffffffffffffffff1689898960405180606001604052808981526020018881526020018781525060405160240161038a9493929190610f9c565b6040516020818303038152906040526311479fea60e01b6020820180517bffffffffffffffffffffffffffffffffffffffffffffffffffffffff83818316178352505050506040516103dc9190611054565b6000604051808303816000865af19150503d8060008114610419576040519150601f19603f3d011682016040523d82523d6000602084013e61041e565b606091505b5050905080610462576040517f08c379a0000000000000000000000000000000000000000000000000000000008152600401610459906110b7565b60405180910390fd5b60016007600085815260200190815260200160002060006101000a81548160ff021916908315150217905550600085905060008173ffffffffffffffffffffffffffffffffffffffff166003546040516104bb906110fd565b60006040518083038185875af1925050503d80600081146104f8576040519150601f19603f3d011682016040523d82523d6000602084013e6104fd565b606091505b5050905080610541576040517f08c379a00000000000000000000000000000000000000000000000000000000081526004016105389061115e565b60405180910390fd5b7f7fcf532c15f0a6db0bd6d0e038bea71d30d808c7d98cb3bf7268a95bf5081b65338660405161057292919061118d565b60405180910390a1505050505050610588610a6b565b5050505050565b610597610a1c565b60035434146105db576040517f08c379a00000000000000000000000000000000000000000000000000000000081526004016105d290611202565b60405180910390fd5b6008600082815260200190815260200160002060009054906101000a900460ff161561063c576040517f08c379a00000000000000000000000000000000000000000000000000000000081526004016106339061126e565b60405180910390fd5b600260149054906101000a900460ff16600261065891906113f0565b6004541061069b576040517f08c379a000000000000000000000000000000000000000000000000000000000815260040161069290611487565b60405180910390fd5b60006106a5610a75565b6106ad610a98565b6000600454905060008590506000806106c4610abb565b60005b600260149054906101000a900460ff1660ff168160ff1610156109255760006002876106f391906114d6565b0361077c5784935060098160ff16600a811061071257610711610d01565b5b0154925060098160ff16600a811061072d5761072c610d01565b5b0154888260ff16600a811061074557610744610d01565b5b6020020181815250506000878260ff16600a811061076657610765610d01565b5b602002019060ff16908160ff16815250506107fe565b600660008260ff1660ff168152602001908152602001600020549350849250600660008260ff1660ff16815260200190815260200160002054888260ff16600a81106107cb576107ca610d01565b5b6020020181815250506001878260ff16600a81106107ec576107eb610d01565b5b602002019060ff16908160ff16815250505b84600660008360ff1660ff16815260200190815260200160002081905550838260006002811061083157610830610d01565b5b602002018181525050828260016002811061084f5761084e610d01565b5b6020020181815250506000600260009054906101000a900473ffffffffffffffffffffffffffffffffffffffff1673ffffffffffffffffffffffffffffffffffffffff1663d622e5a4620249f0858e6040518463ffffffff1660e01b81526004016108bb92919061158b565b6020604051808303818786fa1580156108d8573d6000803e3d6000fd5b50505050506040513d601f19601f820116820180604052508101906108fd91906115c9565b905080955060028761090f91906115f6565b965050808061091d90611627565b9150506106c7565b508397506001600560008a815260200190815260200160002060006101000a81548160ff0219169083151502179055506001600460008282546109689190611650565b925050819055506001600860008b815260200190815260200160002060006101000a81548160ff0219169083151502179055507fe6ab8667cb740d6c65a4ad321c031eb42f6c5085d5753238d1b2e1e370c134838888886040516109ce939291906117b3565b60405180910390a150505050505050506109e6610a6b565b50565b600260149054906101000a900460ff1681565b60056020528060005260406000206000915054906101000a900460ff1681565b600260005403610a61576040517f08c379a0000000000000000000000000000000000000000000000000000000008152600401610a5890611838565b60405180910390fd5b6002600081905550565b6001600081905550565b604051806101400160405280600a90602082028036833780820191505090505090565b604051806101400160405280600a90602082028036833780820191505090505090565b6040518060400160405280600290602082028036833780820191505090505090565b600080fd5b6000819050919050565b610af581610ae2565b8114610b0057600080fd5b50565b600081359050610b1281610aec565b92915050565b600060208284031215610b2e57610b2d610add565b5b6000610b3c84828501610b03565b91505092915050565b60008115159050919050565b610b5a81610b45565b82525050565b6000602082019050610b756000830184610b51565b92915050565b610b8481610ae2565b82525050565b6000602082019050610b9f6000830184610b7b565b92915050565b600080fd5b600081905082602060020282011115610bc657610bc5610ba5565b5b92915050565b600081905082604060020282011115610be857610be7610ba5565b5b92915050565b600073ffffffffffffffffffffffffffffffffffffffff82169050919050565b6000610c1982610bee565b9050919050565b610c2981610c0e565b8114610c3457600080fd5b50565b600081359050610c4681610c20565b92915050565b60008060008060006101608688031215610c6957610c68610add565b5b6000610c7788828901610baa565b9550506040610c8888828901610bcc565b94505060c0610c9988828901610baa565b935050610100610cab88828901610baa565b925050610140610cbd88828901610c37565b9150509295509295909350565b600060ff82169050919050565b610ce081610cca565b82525050565b6000602082019050610cfb6000830184610cd7565b92915050565b7f4e487b7100000000000000000000000000000000000000000000000000000000600052603260045260246000fd5b600082825260208201905092915050565b7f416c7265616479207370656e7400000000000000000000000000000000000000600082015250565b6000610d77600d83610d30565b9150610d8282610d41565b602082019050919050565b60006020820190508181036000830152610da681610d6a565b9050919050565b7f496e76616c696420726f6f740000000000000000000000000000000000000000600082015250565b6000610de3600c83610d30565b9150610dee82610dad565b602082019050919050565b60006020820190508181036000830152610e1281610dd6565b9050919050565b82818337505050565b610e2e60408383610e19565b5050565b600060029050919050565b600081905092915050565b6000819050919050565b610e5e60408383610e19565b5050565b6000610e6e8383610e52565b60408301905092915050565b600082905092915050565b6000604082019050919050565b610e9b81610e32565b610ea58184610e3d565b9250610eb082610e48565b8060005b83811015610ee957610ec68284610e7a565b610ed08782610e62565b9650610edb83610e85565b925050600181019050610eb4565b505050505050565b600060039050919050565b600081905092915050565b6000819050919050565b610f1a81610ae2565b82525050565b6000610f2c8383610f11565b60208301905092915050565b6000602082019050919050565b610f4e81610ef1565b610f588184610efc565b9250610f6382610f07565b8060005b83811015610f94578151610f7b8782610f20565b9650610f8683610f38565b925050600181019050610f67565b505050505050565b600061016082019050610fb26000830187610e22565b610fbf6040830186610e92565b610fcc60c0830185610e22565b610fda610100830184610f45565b95945050505050565b600081519050919050565b600081905092915050565b60005b83811015611017578082015181840152602081019050610ffc565b60008484015250505050565b600061102e82610fe3565b6110388185610fee565b9350611048818560208601610ff9565b80840191505092915050565b60006110608284611023565b915081905092915050565b7f496e76616c69642070726f6f6600000000000000000000000000000000000000600082015250565b60006110a1600d83610d30565b91506110ac8261106b565b602082019050919050565b600060208201905081810360008301526110d081611094565b9050919050565b50565b60006110e7600083610fee565b91506110f2826110d7565b600082019050919050565b6000611108826110da565b9150819050919050565b7f5769746864726177206661696c65640000000000000000000000000000000000600082015250565b6000611148600f83610d30565b915061115382611112565b602082019050919050565b600060208201905081810360008301526111778161113b565b9050919050565b61118781610c0e565b82525050565b60006040820190506111a2600083018561117e565b6111af6020830184610b7b565b9392505050565b7f696e636f72726563742d616d6f756e7400000000000000000000000000000000600082015250565b60006111ec601083610d30565b91506111f7826111b6565b602082019050919050565b6000602082019050818103600083015261121b816111df565b9050919050565b7f6578697374696e672d636f6d6d69746d656e7400000000000000000000000000600082015250565b6000611258601383610d30565b915061126382611222565b602082019050919050565b600060208201905081810360008301526112878161124b565b9050919050565b7f4e487b7100000000000000000000000000000000000000000000000000000000600052601160045260246000fd5b60008160011c9050919050565b6000808291508390505b6001851115611314578086048111156112f0576112ef61128e565b5b60018516156112ff5780820291505b808102905061130d856112bd565b94506112d4565b94509492505050565b60008261132d57600190506113e9565b8161133b57600090506113e9565b8160018114611351576002811461135b5761138a565b60019150506113e9565b60ff84111561136d5761136c61128e565b5b8360020a9150848211156113845761138361128e565b5b506113e9565b5060208310610133831016604e8410600b84101617156113bf5782820a9050838111156113ba576113b961128e565b5b6113e9565b6113cc84848460016112ca565b925090508184048111156113e3576113e261128e565b5b81810290505b9392505050565b60006113fb82610ae2565b915061140683610cca565b92506114337fffffffffffffffffffffffffffffffffffffffffffffffffffffffffffffffff848461131d565b905092915050565b7f747265652d66756c6c0000000000000000000000000000000000000000000000600082015250565b6000611471600983610d30565b915061147c8261143b565b602082019050919050565b600060208201905081810360008301526114a081611464565b9050919050565b7f4e487b7100000000000000000000000000000000000000000000000000000000600052601260045260246000fd5b60006114e182610ae2565b91506114ec83610ae2565b9250826114fc576114fb6114a7565b5b828206905092915050565b600060029050919050565b600081905092915050565b6000819050919050565b6000602082019050919050565b61153d81611507565b6115478184611512565b92506115528261151d565b8060005b8381101561158357815161156a8782610f20565b965061157583611527565b925050600181019050611556565b505050505050565b60006060820190506115a06000830185611534565b6115ad6040830184610b7b565b9392505050565b6000815190506115c381610aec565b92915050565b6000602082840312156115df576115de610add565b5b60006115ed848285016115b4565b91505092915050565b600061160182610ae2565b915061160c83610ae2565b92508261161c5761161b6114a7565b5b828204905092915050565b600061163282610cca565b915060ff82036116455761164461128e565b5b600182019050919050565b600061165b82610ae2565b915061166683610ae2565b925082820190508082111561167e5761167d61128e565b5b92915050565b6000600a9050919050565b600081905092915050565b6000819050919050565b6000602082019050919050565b6116ba81611684565b6116c4818461168f565b92506116cf8261169a565b8060005b838110156117005781516116e78782610f20565b96506116f2836116a4565b9250506001810190506116d3565b505050505050565b6000600a9050919050565b600081905092915050565b6000819050919050565b61173181610cca565b82525050565b60006117438383611728565b60208301905092915050565b6000602082019050919050565b61176581611708565b61176f8184611713565b925061177a8261171e565b8060005b838110156117ab5781516117928782611737565b965061179d8361174f565b92505060018101905061177e565b505050505050565b60006102a0820190506117c96000830186610b7b565b6117d660208301856116b1565b6117e461016083018461175c565b949350505050565b7f5265656e7472616e637947756172643a207265656e7472616e742063616c6c00600082015250565b6000611822601f83610d30565b915061182d826117ec565b602082019050919050565b6000602082019050818103600083015261185181611815565b905091905056fea264697066735822122079ee81ac4a1b77597108cbe0f5d5bc3ce78950499e06de6669e0cdc39fb32de964736f6c63430008110033",
  "linkReferences": {},
  "deployedLinkReferences": {}
}