{
  "_format": "hh-sol-artifact-1",
  "contractName": "Shadow",
  "sourceName": "contracts/Shadow.sol",
  "abi": [
    {
      "inputs": [
        {
          "internalType": "address",
          "name": "_hasher",
          "type": "address"
        },
        {
          "internalType": "address",
          "name": "_verifier",
          "type": "address"
        }
      ],
      "stateMutability": "nonpayable",
      "type": "constructor"
    },
    {
      "anonymous": false,
      "inputs": [
        {
          "indexed": false,
          "internalType": "uint256",
          "name": "root",
          "type": "uint256"
        },
        {
          "indexed": false,
          "internalType": "uint256[10]",
          "name": "hashPairings",
          "type": "uint256[10]"
        },
        {
          "indexed": false,
          "internalType": "uint8[10]",
          "name": "pairDirection",
          "type": "uint8[10]"
        }
      ],
      "name": "Deposit",
      "type": "event"
    },
    {
      "anonymous": false,
      "inputs": [
        {
          "indexed": false,
          "internalType": "address",
          "name": "to",
          "type": "address"
        },
        {
          "indexed": false,
          "internalType": "uint256",
          "name": "nullifierHash",
          "type": "uint256"
        }
      ],
      "name": "Withdrawal",
      "type": "event"
    },
    {
      "inputs": [
        {
          "internalType": "uint256",
          "name": "",
          "type": "uint256"
        }
      ],
      "name": "commitments",
      "outputs": [
        {
          "internalType": "bool",
          "name": "",
          "type": "bool"
        }
      ],
      "stateMutability": "view",
      "type": "function"
    },
    {
      "inputs": [],
      "name": "denomination",
      "outputs": [
        {
          "internalType": "uint256",
          "name": "",
          "type": "uint256"
        }
      ],
      "stateMutability": "view",
      "type": "function"
    },
    {
      "inputs": [
        {
          "internalType": "uint256",
          "name": "_commitment",
          "type": "uint256"
        }
      ],
      "name": "deposit",
      "outputs": [],
      "stateMutability": "payable",
      "type": "function"
    },
    {
      "inputs": [
        {
          "internalType": "uint256",
          "name": "",
          "type": "uint256"
        }
      ],
      "name": "nullifierHashes",
      "outputs": [
        {
          "internalType": "bool",
          "name": "",
          "type": "bool"
        }
      ],
      "stateMutability": "view",
      "type": "function"
    },
    {
      "inputs": [
        {
          "internalType": "uint256",
          "name": "",
          "type": "uint256"
        }
      ],
      "name": "roots",
      "outputs": [
        {
          "internalType": "bool",
          "name": "",
          "type": "bool"
        }
      ],
      "stateMutability": "view",
      "type": "function"
    },
    {
      "inputs": [],
      "name": "treeLevel",
      "outputs": [
        {
          "internalType": "uint8",
          "name": "",
          "type": "uint8"
        }
      ],
      "stateMutability": "view",
      "type": "function"
    },
    {
      "inputs": [
        {
          "internalType": "uint256[2]",
          "name": "_pA",
          "type": "uint256[2]"
        },
        {
          "internalType": "uint256[2][2]",
          "name": "_pB",
          "type": "uint256[2][2]"
        },
        {
          "internalType": "uint256[2]",
          "name": "_pC",
          "type": "uint256[2]"
        },
        {
          "internalType": "uint256[2]",
          "name": "_pubSignals",
          "type": "uint256[2]"
        }
      ],
      "name": "withdraw",
      "outputs": [],
      "stateMutability": "payable",
      "type": "function"
    }
  ],
  "bytecode": "0x6080604052600a600260146101000a81548160ff021916908360ff16021790555066038d7ea4c6800060035560006004556040518061014001604052807f33418cd1669b4e7f4bf473ec2db9a489b3d6f9f11b91d0b3b6004432ab53d60b81526020017f350ffb7c45ccf8940c163b192252495b614def57272b6f8d9a53a5b3e44ef8bd81526020017fc8acb7af851baf91a82b1ad46b01ac506ce80387170890dea377d21e8520258481526020017f5171d273154b2764aa5903210e16bd1899b18648d1358d41887a113227e9acc581526020017f986c06cb04d613f57cf7a1da410e0f22c794e1ec1ae125898cfc9662a5e5be5981526020017f6eb9a05106eff3031621027680204b2e9326b0e5191bd62f3cd7bf7f6d94d02781526020017fa1cbc8691493398c061f547b4882edbb6a38ce1730c8a2605e9d8138d4ad122681526020017f850aa72f3d8bc65181e9c29d76f7614e2f939ade9442abac29fc8a0329deeffd81526020017fe9c6f678752dbfc89028bf8b9b1cce608b34b742b75fbae878ec2c6ae803dc1e81526020017fa9e22c2e1f4531bc4389032bb472b97c25a7298d27ba4fefd75439a1be46f77f815250600990600a620001c89291906200028e565b50348015620001d657600080fd5b5060405162001bff38038062001bff8339818101604052810190620001fc91906200035c565b600160008190555081600260006101000a81548173ffffffffffffffffffffffffffffffffffffffff021916908373ffffffffffffffffffffffffffffffffffffffff16021790555080600160006101000a81548173ffffffffffffffffffffffffffffffffffffffff021916908373ffffffffffffffffffffffffffffffffffffffff1602179055505050620003a3565b82600a8101928215620002c0579160200282015b82811115620002bf578251825591602001919060010190620002a2565b5b509050620002cf9190620002d3565b5090565b5b80821115620002ee576000816000905550600101620002d4565b5090565b600080fd5b600073ffffffffffffffffffffffffffffffffffffffff82169050919050565b60006200032482620002f7565b9050919050565b620003368162000317565b81146200034257600080fd5b50565b60008151905062000356816200032b565b92915050565b60008060408385031215620003765762000375620002f2565b5b6000620003868582860162000345565b9250506020620003998582860162000345565b9150509250929050565b61184c80620003b36000396000f3fe6080604052600436106100705760003560e01c8063b6b55f251161004e578063b6b55f251461011a578063b8e7956414610136578063c2b40ae414610161578063c78784d71461019e57610070565b80631f79a1e91461007557806349ce8997146100b25780638bca6d16146100ef575b600080fd5b34801561008157600080fd5b5061009c60048036038101906100979190610b17565b6101ba565b6040516100a99190610b5f565b60405180910390f35b3480156100be57600080fd5b506100d960048036038101906100d49190610b17565b6101da565b6040516100e69190610b5f565b60405180910390f35b3480156100fb57600080fd5b506101046101fa565b6040516101119190610b89565b60405180910390f35b610134600480360381019061012f9190610b17565b610200565b005b34801561014257600080fd5b5061014b61065a565b6040516101589190610bc0565b60405180910390f35b34801561016d57600080fd5b5061018860048036038101906101839190610b17565b61066d565b6040516101959190610b5f565b60405180910390f35b6101b860048036038101906101b39190610c24565b61068d565b005b60076020528060005260406000206000915054906101000a900460ff1681565b60086020528060005260406000206000915054906101000a900460ff1681565b60035481565b610208610a1b565b600354341461024c576040517f08c379a000000000000000000000000000000000000000000000000000000000815260040161024390610cea565b60405180910390fd5b6008600082815260200190815260200160002060009054906101000a900460ff16156102ad576040517f08c379a00000000000000000000000000000000000000000000000000000000081526004016102a490610d56565b60405180910390fd5b600260149054906101000a900460ff1660026102c99190610ed8565b6004541061030c576040517f08c379a000000000000000000000000000000000000000000000000000000000815260040161030390610f6f565b60405180910390fd5b6000610316610a74565b61031e610a97565b600060045490506000859050600080610335610aba565b60005b600260149054906101000a900460ff1660ff168160ff1610156105965760006002876103649190610fbe565b036103ed5784935060098160ff16600a811061038357610382610fef565b5b0154925060098160ff16600a811061039e5761039d610fef565b5b0154888260ff16600a81106103b6576103b5610fef565b5b6020020181815250506000878260ff16600a81106103d7576103d6610fef565b5b602002019060ff16908160ff168152505061046f565b600660008260ff1660ff168152602001908152602001600020549350849250600660008260ff1660ff16815260200190815260200160002054888260ff16600a811061043c5761043b610fef565b5b6020020181815250506001878260ff16600a811061045d5761045c610fef565b5b602002019060ff16908160ff16815250505b84600660008360ff1660ff1681526020019081526020016000208190555083826000600281106104a2576104a1610fef565b5b60200201818152505082826001600281106104c0576104bf610fef565b5b6020020181815250506000600260009054906101000a900473ffffffffffffffffffffffffffffffffffffffff1673ffffffffffffffffffffffffffffffffffffffff1663d622e5a4620249f0858e6040518463ffffffff1660e01b815260040161052c9291906110c9565b6020604051808303818786fa158015610549573d6000803e3d6000fd5b50505050506040513d601f19601f8201168201806040525081019061056e9190611107565b90508095506002876105809190611134565b965050808061058e90611165565b915050610338565b508397506001600560008a815260200190815260200160002060006101000a81548160ff0219169083151502179055506001600460008282546105d9919061118e565b925050819055506001600860008b815260200190815260200160002060006101000a81548160ff0219169083151502179055507fe6ab8667cb740d6c65a4ad321c031eb42f6c5085d5753238d1b2e1e370c1348388888860405161063f939291906112f1565b60405180910390a15050505050505050610657610a6a565b50565b600260149054906101000a900460ff1681565b60056020528060005260406000206000915054906101000a900460ff1681565b610695610a1b565b6000816000600281106106ab576106aa610fef565b5b602002013590506000826001600281106106c8576106c7610fef565b5b602002013590506007600082815260200190815260200160002060009054906101000a900460ff1615610730576040517f08c379a000000000000000000000000000000000000000000000000000000000815260040161072790611376565b60405180910390fd5b6005600083815260200190815260200160002060009054906101000a900460ff16610790576040517f08c379a0000000000000000000000000000000000000000000000000000000008152600401610787906113e2565b60405180910390fd5b60003373ffffffffffffffffffffffffffffffffffffffff1690506000600160009054906101000a900473ffffffffffffffffffffffffffffffffffffffff1673ffffffffffffffffffffffffffffffffffffffff16888888604051806060016040528089815260200188815260200187815250604051602401610817949392919061155e565b6040516020818303038152906040526311479fea60e01b6020820180517bffffffffffffffffffffffffffffffffffffffffffffffffffffffff83818316178352505050506040516108699190611616565b6000604051808303816000865af19150503d80600081146108a6576040519150601f19603f3d011682016040523d82523d6000602084013e6108ab565b606091505b50509050806108ef576040517f08c379a00000000000000000000000000000000000000000000000000000000081526004016108e690611679565b60405180910390fd5b60016007600085815260200190815260200160002060006101000a81548160ff021916908315150217905550600033905060008173ffffffffffffffffffffffffffffffffffffffff16600354604051610948906116bf565b60006040518083038185875af1925050503d8060008114610985576040519150601f19603f3d011682016040523d82523d6000602084013e61098a565b606091505b50509050806109ce576040517f08c379a00000000000000000000000000000000000000000000000000000000081526004016109c590611720565b60405180910390fd5b7f7fcf532c15f0a6db0bd6d0e038bea71d30d808c7d98cb3bf7268a95bf5081b6533866040516109ff929190611781565b60405180910390a1505050505050610a15610a6a565b50505050565b600260005403610a60576040517f08c379a0000000000000000000000000000000000000000000000000000000008152600401610a57906117f6565b60405180910390fd5b6002600081905550565b6001600081905550565b604051806101400160405280600a90602082028036833780820191505090505090565b604051806101400160405280600a90602082028036833780820191505090505090565b6040518060400160405280600290602082028036833780820191505090505090565b600080fd5b6000819050919050565b610af481610ae1565b8114610aff57600080fd5b50565b600081359050610b1181610aeb565b92915050565b600060208284031215610b2d57610b2c610adc565b5b6000610b3b84828501610b02565b91505092915050565b60008115159050919050565b610b5981610b44565b82525050565b6000602082019050610b746000830184610b50565b92915050565b610b8381610ae1565b82525050565b6000602082019050610b9e6000830184610b7a565b92915050565b600060ff82169050919050565b610bba81610ba4565b82525050565b6000602082019050610bd56000830184610bb1565b92915050565b600080fd5b600081905082602060020282011115610bfc57610bfb610bdb565b5b92915050565b600081905082604060020282011115610c1e57610c1d610bdb565b5b92915050565b6000806000806101408587031215610c3f57610c3e610adc565b5b6000610c4d87828801610be0565b9450506040610c5e87828801610c02565b93505060c0610c6f87828801610be0565b925050610100610c8187828801610be0565b91505092959194509250565b600082825260208201905092915050565b7f696e636f72726563742d616d6f756e7400000000000000000000000000000000600082015250565b6000610cd4601083610c8d565b9150610cdf82610c9e565b602082019050919050565b60006020820190508181036000830152610d0381610cc7565b9050919050565b7f6578697374696e672d636f6d6d69746d656e7400000000000000000000000000600082015250565b6000610d40601383610c8d565b9150610d4b82610d0a565b602082019050919050565b60006020820190508181036000830152610d6f81610d33565b9050919050565b7f4e487b7100000000000000000000000000000000000000000000000000000000600052601160045260246000fd5b60008160011c9050919050565b6000808291508390505b6001851115610dfc57808604811115610dd857610dd7610d76565b5b6001851615610de75780820291505b8081029050610df585610da5565b9450610dbc565b94509492505050565b600082610e155760019050610ed1565b81610e235760009050610ed1565b8160018114610e395760028114610e4357610e72565b6001915050610ed1565b60ff841115610e5557610e54610d76565b5b8360020a915084821115610e6c57610e6b610d76565b5b50610ed1565b5060208310610133831016604e8410600b8410161715610ea75782820a905083811115610ea257610ea1610d76565b5b610ed1565b610eb48484846001610db2565b92509050818404811115610ecb57610eca610d76565b5b81810290505b9392505050565b6000610ee382610ae1565b9150610eee83610ba4565b9250610f1b7fffffffffffffffffffffffffffffffffffffffffffffffffffffffffffffffff8484610e05565b905092915050565b7f747265652d66756c6c0000000000000000000000000000000000000000000000600082015250565b6000610f59600983610c8d565b9150610f6482610f23565b602082019050919050565b60006020820190508181036000830152610f8881610f4c565b9050919050565b7f4e487b7100000000000000000000000000000000000000000000000000000000600052601260045260246000fd5b6000610fc982610ae1565b9150610fd483610ae1565b925082610fe457610fe3610f8f565b5b828206905092915050565b7f4e487b7100000000000000000000000000000000000000000000000000000000600052603260045260246000fd5b600060029050919050565b600081905092915050565b6000819050919050565b61104781610ae1565b82525050565b6000611059838361103e565b60208301905092915050565b6000602082019050919050565b61107b8161101e565b6110858184611029565b925061109082611034565b8060005b838110156110c15781516110a8878261104d565b96506110b383611065565b925050600181019050611094565b505050505050565b60006060820190506110de6000830185611072565b6110eb6040830184610b7a565b9392505050565b60008151905061110181610aeb565b92915050565b60006020828403121561111d5761111c610adc565b5b600061112b848285016110f2565b91505092915050565b600061113f82610ae1565b915061114a83610ae1565b92508261115a57611159610f8f565b5b828204905092915050565b600061117082610ba4565b915060ff820361118357611182610d76565b5b600182019050919050565b600061119982610ae1565b91506111a483610ae1565b92508282019050808211156111bc576111bb610d76565b5b92915050565b6000600a9050919050565b600081905092915050565b6000819050919050565b6000602082019050919050565b6111f8816111c2565b61120281846111cd565b925061120d826111d8565b8060005b8381101561123e578151611225878261104d565b9650611230836111e2565b925050600181019050611211565b505050505050565b6000600a9050919050565b600081905092915050565b6000819050919050565b61126f81610ba4565b82525050565b60006112818383611266565b60208301905092915050565b6000602082019050919050565b6112a381611246565b6112ad8184611251565b92506112b88261125c565b8060005b838110156112e95781516112d08782611275565b96506112db8361128d565b9250506001810190506112bc565b505050505050565b60006102a0820190506113076000830186610b7a565b61131460208301856111ef565b61132261016083018461129a565b949350505050565b7f416c7265616479207370656e7400000000000000000000000000000000000000600082015250565b6000611360600d83610c8d565b915061136b8261132a565b602082019050919050565b6000602082019050818103600083015261138f81611353565b9050919050565b7f496e76616c696420726f6f740000000000000000000000000000000000000000600082015250565b60006113cc600c83610c8d565b91506113d782611396565b602082019050919050565b600060208201905081810360008301526113fb816113bf565b9050919050565b82818337505050565b61141760408383611402565b5050565b600060029050919050565b600081905092915050565b6000819050919050565b61144760408383611402565b5050565b6000611457838361143b565b60408301905092915050565b600082905092915050565b6000604082019050919050565b6114848161141b565b61148e8184611426565b925061149982611431565b8060005b838110156114d2576114af8284611463565b6114b9878261144b565b96506114c48361146e565b92505060018101905061149d565b505050505050565b600060039050919050565b600081905092915050565b6000819050919050565b6000602082019050919050565b611510816114da565b61151a81846114e5565b9250611525826114f0565b8060005b8381101561155657815161153d878261104d565b9650611548836114fa565b925050600181019050611529565b505050505050565b600061016082019050611574600083018761140b565b611581604083018661147b565b61158e60c083018561140b565b61159c610100830184611507565b95945050505050565b600081519050919050565b600081905092915050565b60005b838110156115d95780820151818401526020810190506115be565b60008484015250505050565b60006115f0826115a5565b6115fa81856115b0565b935061160a8185602086016115bb565b80840191505092915050565b600061162282846115e5565b915081905092915050565b7f496e76616c69642070726f6f6600000000000000000000000000000000000000600082015250565b6000611663600d83610c8d565b915061166e8261162d565b602082019050919050565b6000602082019050818103600083015261169281611656565b9050919050565b50565b60006116a96000836115b0565b91506116b482611699565b600082019050919050565b60006116ca8261169c565b9150819050919050565b7f5769746864726177206661696c65640000000000000000000000000000000000600082015250565b600061170a600f83610c8d565b9150611715826116d4565b602082019050919050565b60006020820190508181036000830152611739816116fd565b9050919050565b600073ffffffffffffffffffffffffffffffffffffffff82169050919050565b600061176b82611740565b9050919050565b61177b81611760565b82525050565b60006040820190506117966000830185611772565b6117a36020830184610b7a565b9392505050565b7f5265656e7472616e637947756172643a207265656e7472616e742063616c6c00600082015250565b60006117e0601f83610c8d565b91506117eb826117aa565b602082019050919050565b6000602082019050818103600083015261180f816117d3565b905091905056fea26469706673582212206a80b05208001ea40004ce71d57aeac75fbd7e390c87e344138fcfeaed73982a64736f6c63430008110033",
  "linkReferences": {},
  "deployedLinkReferences": {}
}