{
    "_format": "hh-sol-artifact-1",
    "contractName": "Shadow",
    "sourceName": "contracts/Shadow.sol",
    "abi": [
        {
            "inputs": [
                {
                    "internalType": "address",
                    "name": "_hasher",
                    "type": "address"
                },
                {
                    "internalType": "address",
                    "name": "_verifier",
                    "type": "address"
                }
            ],
            "stateMutability": "nonpayable",
            "type": "constructor"
        },
        {
            "anonymous": false,
            "inputs": [
                {
                    "indexed": false,
                    "internalType": "uint256",
                    "name": "root",
                    "type": "uint256"
                },
                {
                    "indexed": false,
                    "internalType": "uint256[10]",
                    "name": "hashPairings",
                    "type": "uint256[10]"
                },
                {
                    "indexed": false,
                    "internalType": "uint8[10]",
                    "name": "pairDirection",
                    "type": "uint8[10]"
                }
            ],
            "name": "Deposit",
            "type": "event"
        },
        {
            "anonymous": false,
            "inputs": [
                {
                    "indexed": false,
                    "internalType": "address",
                    "name": "to",
                    "type": "address"
                },
                {
                    "indexed": false,
                    "internalType": "uint256",
                    "name": "nullifierHash",
                    "type": "uint256"
                }
            ],
            "name": "Withdrawal",
            "type": "event"
        },
        {
            "inputs": [
                {
                    "internalType": "uint256",
                    "name": "",
                    "type": "uint256"
                }
            ],
            "name": "commitments",
            "outputs": [
                {
                    "internalType": "bool",
                    "name": "",
                    "type": "bool"
                }
            ],
            "stateMutability": "view",
            "type": "function"
        },
        {
            "inputs": [],
            "name": "denomination",
            "outputs": [
                {
                    "internalType": "uint256",
                    "name": "",
                    "type": "uint256"
                }
            ],
            "stateMutability": "view",
            "type": "function"
        },
        {
            "inputs": [
                {
                    "internalType": "uint256",
                    "name": "_commitment",
                    "type": "uint256"
                }
            ],
            "name": "deposit",
            "outputs": [],
            "stateMutability": "payable",
            "type": "function"
        },
        {
            "inputs": [
                {
                    "internalType": "uint256",
                    "name": "",
                    "type": "uint256"
                }
            ],
            "name": "nullifierHashes",
            "outputs": [
                {
                    "internalType": "bool",
                    "name": "",
                    "type": "bool"
                }
            ],
            "stateMutability": "view",
            "type": "function"
        },
        {
            "inputs": [
                {
                    "internalType": "uint256",
                    "name": "",
                    "type": "uint256"
                }
            ],
            "name": "roots",
            "outputs": [
                {
                    "internalType": "bool",
                    "name": "",
                    "type": "bool"
                }
            ],
            "stateMutability": "view",
            "type": "function"
        },
        {
            "inputs": [],
            "name": "treeLevel",
            "outputs": [
                {
                    "internalType": "uint8",
                    "name": "",
                    "type": "uint8"
                }
            ],
            "stateMutability": "view",
            "type": "function"
        }
    ],
    "bytecode": "0x6080604052600a600160146101000a81548160ff021916908360ff16021790555066038d7ea4c6800060025560006003556040518061014001604052807f33418cd1669b4e7f4bf473ec2db9a489b3d6f9f11b91d0b3b6004432ab53d60b81526020017f350ffb7c45ccf8940c163b192252495b614def57272b6f8d9a53a5b3e44ef8bd81526020017fc8acb7af851baf91a82b1ad46b01ac506ce80387170890dea377d21e8520258481526020017f5171d273154b2764aa5903210e16bd1899b18648d1358d41887a113227e9acc581526020017f986c06cb04d613f57cf7a1da410e0f22c794e1ec1ae125898cfc9662a5e5be5981526020017f6eb9a05106eff3031621027680204b2e9326b0e5191bd62f3cd7bf7f6d94d02781526020017fa1cbc8691493398c061f547b4882edbb6a38ce1730c8a2605e9d8138d4ad122681526020017f850aa72f3d8bc65181e9c29d76f7614e2f939ade9442abac29fc8a0329deeffd81526020017fe9c6f678752dbfc89028bf8b9b1cce608b34b742b75fbae878ec2c6ae803dc1e81526020017fa9e22c2e1f4531bc4389032bb472b97c25a7298d27ba4fefd75439a1be46f77f815250600890600a620001c89291906200024d565b50348015620001d657600080fd5b5060405162001322380380620013228339818101604052810190620001fc91906200031b565b600160008190555081600160006101000a81548173ffffffffffffffffffffffffffffffffffffffff021916908373ffffffffffffffffffffffffffffffffffffffff160217905550505062000362565b82600a81019282156200027f579160200282015b828111156200027e57825182559160200191906001019062000261565b5b5090506200028e919062000292565b5090565b5b80821115620002ad57600081600090555060010162000293565b5090565b600080fd5b600073ffffffffffffffffffffffffffffffffffffffff82169050919050565b6000620002e382620002b6565b9050919050565b620002f581620002d6565b81146200030157600080fd5b50565b6000815190506200031581620002ea565b92915050565b60008060408385031215620003355762000334620002b1565b5b6000620003458582860162000304565b9250506020620003588582860162000304565b9150509250929050565b610fb080620003726000396000f3fe6080604052600436106100555760003560e01c80631f79a1e91461005a57806349ce8997146100975780638bca6d16146100d4578063b6b55f25146100ff578063b8e795641461011b578063c2b40ae414610146575b600080fd5b34801561006657600080fd5b50610081600480360381019061007c9190610761565b610183565b60405161008e91906107a9565b60405180910390f35b3480156100a357600080fd5b506100be60048036038101906100b99190610761565b6101a3565b6040516100cb91906107a9565b60405180910390f35b3480156100e057600080fd5b506100e96101c3565b6040516100f691906107d3565b60405180910390f35b61011960048036038101906101149190610761565b6101c9565b005b34801561012757600080fd5b50610130610632565b60405161013d919061080a565b60405180910390f35b34801561015257600080fd5b5061016d60048036038101906101689190610761565b610645565b60405161017a91906107a9565b60405180910390f35b60066020528060005260406000206000915054906101000a900460ff1681565b60076020528060005260406000206000915054906101000a900460ff1681565b60025481565b6101d1610665565b6002543414610215576040517f08c379a000000000000000000000000000000000000000000000000000000000815260040161020c906108a8565b60405180910390fd5b6007600082815260200190815260200160002060009054906101000a900460ff1615610276576040517f08c379a000000000000000000000000000000000000000000000000000000000815260040161026d90610914565b60405180910390fd5b600160149054906101000a900460ff1660026102929190610a96565b600354106102d5576040517f08c379a00000000000000000000000000000000000000000000000000000000081526004016102cc90610b53565b60405180910390fd5b60006102df6106be565b6102e76106e1565b6000600354905060008590506000806102fe610704565b60005b600160149054906101000a900460ff1660ff168160ff16101561056e578460056000600160149054906101000a900460ff1660ff1660ff16815260200190815260200160002081905550600060028761035a9190610ba2565b036103e35785935060088160ff16600a811061037957610378610bd3565b5b0154925060088160ff16600a811061039457610393610bd3565b5b0154888260ff16600a81106103ac576103ab610bd3565b5b6020020181815250506000878260ff16600a81106103cd576103cc610bd3565b5b602002019060ff16908160ff168152505061055b565b600560008260ff1660ff168152602001908152602001600020549350849250600560008260ff1660ff16815260200190815260200160002054888260ff16600a811061043257610431610bd3565b5b6020020181815250506001878260ff16600a811061045357610452610bd3565b5b602002019060ff16908160ff1681525050838260006002811061047957610478610bd3565b5b602002018181525050828260016002811061049757610496610bd3565b5b6020020181815250506000600160009054906101000a900473ffffffffffffffffffffffffffffffffffffffff1673ffffffffffffffffffffffffffffffffffffffff1663d622e5a4620249f0858e6040518463ffffffff1660e01b8152600401610503929190610cad565b6020604051808303818786fa158015610520573d6000803e3d6000fd5b50505050506040513d601f19601f820116820180604052508101906105459190610ceb565b90508095506002876105579190610d18565b9650505b808061056690610d49565b915050610301565b508397506001600460008a815260200190815260200160002060006101000a81548160ff0219169083151502179055506001600360008282546105b19190610d72565b925050819055506001600760008b815260200190815260200160002060006101000a81548160ff0219169083151502179055507fe6ab8667cb740d6c65a4ad321c031eb42f6c5085d5753238d1b2e1e370c1348388888860405161061793929190610ed5565b60405180910390a1505050505050505061062f6106b4565b50565b600160149054906101000a900460ff1681565b60046020528060005260406000206000915054906101000a900460ff1681565b6002600054036106aa576040517f08c379a00000000000000000000000000000000000000000000000000000000081526004016106a190610f5a565b60405180910390fd5b6002600081905550565b6001600081905550565b604051806101400160405280600a90602082028036833780820191505090505090565b604051806101400160405280600a90602082028036833780820191505090505090565b6040518060400160405280600290602082028036833780820191505090505090565b600080fd5b6000819050919050565b61073e8161072b565b811461074957600080fd5b50565b60008135905061075b81610735565b92915050565b60006020828403121561077757610776610726565b5b60006107858482850161074c565b91505092915050565b60008115159050919050565b6107a38161078e565b82525050565b60006020820190506107be600083018461079a565b92915050565b6107cd8161072b565b82525050565b60006020820190506107e860008301846107c4565b92915050565b600060ff82169050919050565b610804816107ee565b82525050565b600060208201905061081f60008301846107fb565b92915050565b600082825260208201905092915050565b7f4f6e6c79206465706f736974206f6620302e3030312045544820697320616c6c60008201527f6f77656400000000000000000000000000000000000000000000000000000000602082015250565b6000610892602483610825565b915061089d82610836565b604082019050919050565b600060208201905081810360008301526108c181610885565b9050919050565b7f4475706c696361746520636f6d6d69746d656e74000000000000000000000000600082015250565b60006108fe601483610825565b9150610909826108c8565b602082019050919050565b6000602082019050818103600083015261092d816108f1565b9050919050565b7f4e487b7100000000000000000000000000000000000000000000000000000000600052601160045260246000fd5b60008160011c9050919050565b6000808291508390505b60018511156109ba5780860481111561099657610995610934565b5b60018516156109a55780820291505b80810290506109b385610963565b945061097a565b94509492505050565b6000826109d35760019050610a8f565b816109e15760009050610a8f565b81600181146109f75760028114610a0157610a30565b6001915050610a8f565b60ff841115610a1357610a12610934565b5b8360020a915084821115610a2a57610a29610934565b5b50610a8f565b5060208310610133831016604e8410600b8410161715610a655782820a905083811115610a6057610a5f610934565b5b610a8f565b610a728484846001610970565b92509050818404811115610a8957610a88610934565b5b81810290505b9392505050565b6000610aa18261072b565b9150610aac836107ee565b9250610ad97fffffffffffffffffffffffffffffffffffffffffffffffffffffffffffffffff84846109c3565b905092915050565b7f4d65726b6c65207472656520686173206265656e2066696c6c65642e204e6f2060008201527f6d6f7265206465706f7369742063616e206265206d6164650000000000000000602082015250565b6000610b3d603883610825565b9150610b4882610ae1565b604082019050919050565b60006020820190508181036000830152610b6c81610b30565b9050919050565b7f4e487b7100000000000000000000000000000000000000000000000000000000600052601260045260246000fd5b6000610bad8261072b565b9150610bb88361072b565b925082610bc857610bc7610b73565b5b828206905092915050565b7f4e487b7100000000000000000000000000000000000000000000000000000000600052603260045260246000fd5b600060029050919050565b600081905092915050565b6000819050919050565b610c2b8161072b565b82525050565b6000610c3d8383610c22565b60208301905092915050565b6000602082019050919050565b610c5f81610c02565b610c698184610c0d565b9250610c7482610c18565b8060005b83811015610ca5578151610c8c8782610c31565b9650610c9783610c49565b925050600181019050610c78565b505050505050565b6000606082019050610cc26000830185610c56565b610ccf60408301846107c4565b9392505050565b600081519050610ce581610735565b92915050565b600060208284031215610d0157610d00610726565b5b6000610d0f84828501610cd6565b91505092915050565b6000610d238261072b565b9150610d2e8361072b565b925082610d3e57610d3d610b73565b5b828204905092915050565b6000610d54826107ee565b915060ff8203610d6757610d66610934565b5b600182019050919050565b6000610d7d8261072b565b9150610d888361072b565b9250828201905080821115610da057610d9f610934565b5b92915050565b6000600a9050919050565b600081905092915050565b6000819050919050565b6000602082019050919050565b610ddc81610da6565b610de68184610db1565b9250610df182610dbc565b8060005b83811015610e22578151610e098782610c31565b9650610e1483610dc6565b925050600181019050610df5565b505050505050565b6000600a9050919050565b600081905092915050565b6000819050919050565b610e53816107ee565b82525050565b6000610e658383610e4a565b60208301905092915050565b6000602082019050919050565b610e8781610e2a565b610e918184610e35565b9250610e9c82610e40565b8060005b83811015610ecd578151610eb48782610e59565b9650610ebf83610e71565b925050600181019050610ea0565b505050505050565b60006102a082019050610eeb60008301866107c4565b610ef86020830185610dd3565b610f06610160830184610e7e565b949350505050565b7f5265656e7472616e637947756172643a207265656e7472616e742063616c6c00600082015250565b6000610f44601f83610825565b9150610f4f82610f0e565b602082019050919050565b60006020820190508181036000830152610f7381610f37565b905091905056fea264697066735822122015df41cb7f6450eccafbb61250bf70b92d156117daac752693e99ea82f806e3164736f6c63430008110033",
    "linkReferences": {},
    "deployedLinkReferences": {}
}